:020000040800F2
:10000000800A0020CD0100080F2300089F1D000872
:100010000D23000857030008E52A0008000000002F
:10002000000000000000000000000000E3240008C1
:100030009B03000800000000E1240008E5240008FC
:10004000E7010008E7010008E7010008E7010008F0
:10005000E7010008E7010008E7010008E7010008E0
:10006000E7010008E7010008E7010008E7010008D0
:10007000E7010008E70100085903000865030008CC
:10008000E7010008E7010008E7010008E7010008B0
:10009000E7010008E7010008E7010008E7010008A0
:1000A000E7010008E7010008E7010008E701000890
:1000B000E7010008E7010008E7010008E701000880
:1000C000E7010008E7010008E7010008E701000870
:1000D000E7010008D92A0008E7010008E701000845
:1000E000E7010008E7010008E7010008E701000850
:1000F000E7010008E7010008E7010008E701000840
:10010000E7010008E7010008E7010008E70100082F
:10011000E7010008E701000849250008E701000899
:10012000E7010008E7010008E7010008E70100080F
:1001300000F002F800F03AF80AA090E8000C8244BF
:100140008344AAF10107DA4501D100F02FF8AFF29C
:10015000090EBAE80F0013F0010F18BFFB1A43F0A5
:10016000010318476451000084510000103A24BF75
:1001700078C878C1FAD8520724BF30C830C144BF0C
:1001800004680C607047000000230024002500264E
:10019000103A28BF78C1FBD8520728BF30C148BFEA
:1001A0000B6070471FB51FBD10B510BD00F09EF865
:1001B0001146FFF7F7FF03F097FA00F0BCF803B41D
:1001C000FFF7F2FF03BC00F0BFF8000009488047CA
:1001D00009480047FEE7FEE7FEE7FEE7FEE7FEE729
:1001E000FEE7FEE7FEE7FEE704480549054A064B41
:1001F00070470000472500083101000880040020F6
:10020000800A0020800600208006002010B5203AD9
:10021000C0F00B80B1E81850203AA0E81850B1E8BF
:100220001850A0E81850BFF4F5AF5FEA027C24BF75
:10023000B1E81850A0E8185044BF18C918C0BDE86C
:1002400010405FEA827C24BF51F8043B40F8043B35
:1002500008BF7047D20728BF31F8023B48BF11F8EA
:10026000012B28BF20F8023B48BF00F8012B704744
:100270004FF0000200B5134694469646203922BF3F
:10028000A0E80C50A0E80C50B1F12001BFF4F7AF8A
:10029000090728BFA0E80C5048BF0CC05DF804EB6C
:1002A000890028BF40F8042B08BF704748BF20F8DA
:1002B000022B11F0804F18BF00F8012B70477047D8
:1002C0007047704710B500F009F8006810BD10B510
:1002D000044600F003F8046010BD000000487047B9
:1002E0002004002000487047200400207546FFF7D6
:1002F000F9FFAE4605006946534620F007008546E3
:1003000018B020B5FFF770FFBDE820404FF00006A1
:100310004FF000074FF000084FF0000B21F00701ED
:10032000AC46ACE8C009ACE8C009ACE8C009ACE830
:10033000C0098D46704710B50446AFF300802046D3
:10034000BDE81040FFF73BBF01491820ABBEFEE7F8
:10035000260002007047FEE7014800F0DDB800000B
:10036000D8020020014800F0D7B800009402002015
:1003700030B590F840500124AC40C56B6C60046807
:1003800063604368102B036803D099600068C26003
:1003900030BD9A600068C16030BD704772B6FEE73C
:1003A00010B590F821100022022905D004218163A4
:1003B00080F82020012010BD01680B6823F00E0397
:1003C0000B6001680B6823F001030B6090F840306C
:1003D000C46B012101FA03F3636080F8211080F8F7
:1003E0002020104610BD00002DE9F05F90F821108C
:1003F0000024022903D004218163012485E00168DF
:100400000A6822F00E020A6001680A6822F00102FE
:100410000A603F4E3E4FB215DFF8F4C0DFF8F090AF
:10042000DFF8ECA0DFF8E8B0DFF8E4E00168783F3F
:1004300013011502ACF1640CA9F15009AAF13C0AB0
:10044000ABF1280BAEF1140E4FF48018B14227D94E
:10045000B9420ED0614512D049451DD0514518D042
:10046000594518D0714501D1424615E0294EB14297
:1004700001D1012210E0274E1436B14201D11022E1
:100480000AE0244E2836B14206D0224A3C3291423C
:1004900001D11A4600E02A461E49091F0A602BE0D6
:1004A000B94213D0614517D0494522D051451DD0DE
:1004B00059451DD0714501D142461AE0B14202D1E1
:1004C0004FF0807215E0134EB14201D1012210E0CD
:1004D000104E1436B14201D110220AE00D4E2836DA
:1004E000B14206D00B4A3C32914201D11A4600E09B
:1004F0002A46074980394A60012180F821100021ED
:1005000080F82010416B01B188472046BDE8F09F7C
:1005100080000240080402402DE9F05FC16B0A68C8
:1005200001680B68046C4FF0040808FA04F8844D65
:10053000844E854FDFF814C2DFF81492DFF814A25E
:10054000DFF814B2DFF814E218EA020F65D05FEAB0
:10055000437862D50A68920603D40A6822F004023E
:100560000A60DFF8F0814FF48062016808F1140836
:1005700013011402414524D9A9420DD0B1420FD034
:10058000B9421AD0614515D0494515D0514501D120
:10059000120312E0594501D104220EE0714501D148
:1005A00040220AE06D4D1435A94206D06B4A28322C
:1005B000914201D11A4600E022466749091F0A60AC
:1005C00029E0A94213D0B14215D0B94220D06145EB
:1005D0001BD049451BD0514502D14FF4800217E092
:1005E000414502D14FF0806212E0594501D1042209
:1005F0000EE0714501D140220AE0584D1435A94260
:1006000006D0564A2832914201D11A4600E02246CD
:100610004B4908394A60C16A71E04FF0020808FA94
:1006200004F818EA020F70D05FEA83786DD50A6883
:10063000920606D40A6822F00A020A60012180F8B4
:100640002110DFF810814FF40072016808F11408DE
:1006500013011402414524D9A9420DD0B1420FD053
:10066000B9421AD0614515D0494515D0514501D13F
:10067000120312E0594501D102220EE0714501D169
:1006800020220AE0354D1435A94206D0334A2832DB
:10069000914201D11A4600E022462F49091F0A6003
:1006A00029E0A94213D0B14215D0B94220D061450A
:1006B0001BD049451BD0514502D14FF4001217E021
:1006C000414502D14FF0007212E0594501D102229A
:1006D0000EE0714501D120220AE0204D1435A942D7
:1006E00006D01E4A2832914201D11A4600E0224625
:1006F000134908394A60002180F82010816A0029D6
:100700001CD0BDE8F05F0847FFE70825A54015426B
:1007100014D01A0712D50A6822F00E020A6090F867
:100720004020C36B012101FA02F25A60816380F814
:100730002110002180F82010016BE0E7BDE8F09F58
:10074000080002401C000240300002404400024009
:10075000580002406C000240080402401C040240A1
:1007600030B560B11A4B026814219A4209D2194B74
:100770001344B3FBF1F18900016417490AE0012039
:1007800030BD134B5B421344B3FBF1F189000164AC
:100790000F490839C163022180F82110136843F61C
:1007A000F0718B43F0E901142143D0E902452C4359
:1007B0002143046921434469214384692143194346
:1007C000116000214163012242770177084630BD64
:1007D00008040240F8FFFDBF0000024070B5044667
:1007E00090F82000002501280CD0012084F820007A
:1007F00094F821600020012E06D084F82000022504
:10080000284670BD022070BD022684F82160A063D6
:100810002068066826F0010606602046FFF7A8FD5E
:10082000E06A00282068016802D041F00E0106E06D
:1008300021F0040101602068016841F00A010160B3
:100840002068016841F001010160D9E72DE9F84F06
:10085000DFF8C891002409F1040A0AF1040B2346C9
:100860000F270BF1040ED1E00125A54006EA050291
:10087000AA4276D1DFF8A8C14E68A6EB0C086645FF
:100880002BD00DDC032E34D005DC36B3012E19D06D
:10089000022E2FD11BE0112E16D0122E2AD119E0D4
:1008A000B8F5881F19D006DCB8F5803F15D0B8F52B
:1008B000801F1FD111E0B8F5001F0ED0B8F5041F3E
:1008C00018D10AE0CB6815E0CB681B1D12E0CB689D
:1008D00008330FE0CB680C330CE08B682BB1012B95
:1008E0004FF0080303D0456104E0042302E00561F2
:1008F00000E00023FF2A01D8064601E000F10406CB
:100900004FEA840501D9A5F12005D6F8008007FA41
:1009100005FC28EA0C0803FA05F548EA0508C6F8BC
:1009200000804D68ED0070D53E4DAE6946F0010681
:10093000AE61AD6924F0030605F0010500953A4D5E
:1009400006EB050CDCF80850A607360F07FA06F888
:1009500025EA0805DFF8D480404503D14FF00008B0
:1009600025E052E0DFF8C880404502D14FF0010891
:100970001DE0DFF8C080404502D14FF0020816E0CC
:10098000DFF8B480404502D14FF003080FE0DFF8F4
:10099000AC80404502D14FF0040808E0DFF8A080A9
:1009A000404502D14FF0050801E04FF0060808FA73
:1009B00006F848EA0508CCF808804D68D9F80060C8
:1009C000ED034D4601D5164300E096432E604D6879
:1009D000DAF80060AD03554601D5164300E09643B2
:1009E0002E604D68DBF80060ED025D4601D51643D0
:1009F00000E096432E604D68DEF80060AD0275465B
:100A000001D5164300E096432E60641C0A68164622
:100A1000E2407FF429AFBDE8F88F000000040140F8
:100A200000001110001002400000014000080140C9
:100A3000000C01400010014000140140001801406A
:100A4000001C01408068084000D0012070470AB1B6
:100A5000016170470904FBE70148806870470000A6
:100A600000000020024881680278114481607047CC
:100A700000000020074810B5016841F01001016036
:100A8000032000F075F80F2000F006F800F024F8BD
:100A9000002010BD0020024070B50D4D04464FF4FB
:100AA0007A712878B1FBF0F00A490968B1FBF0F0DF
:100AB00000F0ECFA48B9102C07D200222146501E53
:100AC00000F036F800206C6070BD012070BD0000A1
:100AD000000000200C0000200C4808B5816941F09E
:100AE00001018161816901F001010091C16941F059
:100AF0008051C161C06900F0805000900448416895
:100B000021F0E06141F00071416008BD0010024039
:100B100000000140002809DB00F01F020121914084
:100B20004009800000F1E020C0F80011704700008B
:100B3000F0B40E4B1B680C46C3F30223C3F1070548
:100B4000042D00D90425191D072901D2002300E036
:100B5000DB1E012606FA05F1491E214099409E4000
:100B6000761E16403143F0BC01F0D1BF0CED00E021
:100B7000064900F0070208684FF6FF03184040EAF4
:100B80000220034A10430860704700000CED00E0AB
:100B90000000FA052DE9F0470F46050061D0434EED
:100BA000306800F00700B84209D2306820F0070032
:100BB00038433060306800F00700B84251D12868EF
:100BC0003B4C810712D5400703D5606840F4E060D4
:100BD00060602878000703D5606840F4605060606A
:100BE0006068A96820F0F000084360602878C007BA
:100BF00028D06868012810D02168022810D0890701
:100C000000292EDA616821F0030101436160FFF7DA
:100C100023FF804641F288390DE021688903EFE720
:100C20008901EDE7FFF718FFA0EB0801494502D95C
:100C30000320BDE8F0876068696800F00C00B0EB45
:100C4000810FEFD1306800F00700B8420BD930684F
:100C500020F0070038433060306800F00700B842E9
:100C600001D00120E5E72878400705D56068E968EC
:100C700020F4E060084360602878000706D56068CB
:100C8000296920F4605040EAC100606000F038F843
:100C90006168084AC1F30311515CC8400649086005
:100CA00006480068FFF7F8FE0020C2E70020024077
:100CB00000100240C25100080C0000200400002077
:100CC0000448054900684968044AC1F30221515C9F
:100CD000C84070470C00002000100240D2510008AC
:100CE0000448054900684968044AC1F3C221515CBF
:100CF000C84070470C00002000100240D25100088C
:100D000012A185B00FC98DE80F0014A0144A006825
:100D100004905168134801F00C03042B10D0082BE9
:100D20000ED1C1F38343C9031DF803000AD55168EE
:100D300004AAC1F34041515C0A4A5043B0FBF1F0B0
:100D400005B0704708494843FAE70000020304056C
:100D5000060708090A0B0C0D0E0F10100102000007
:100D60000010024000127A0000093D002DE9F84F02
:100D7000040070D02078C04DC00749D06868C0F327
:100D80008100012807D06868C0F38100022809D1DA
:100D90006868C00306D52868800339D560680028D4
:100DA000E7D035E06068B0F5803F0BD010B1B0F50A
:100DB000A02F11D0286820F480302860286820F403
:100DC000802002E0286840F480302860606890B19C
:100DD000FFF742FE06460AE0286840F480202860BB
:100DE000F0E700BFFFF738FE801B642873D828683F
:100DF0008003F7D50CE0FFF72FFE064605E000BFA5
:100E0000FFF72AFE801B6428F0D828688003F7D4F7
:100E100020789A4E80074FF001094FF0000839D52D
:100E2000686810F00C0F07D06868C0F381000228D2
:100E300009D16868C00306D42868800714D52069E2
:100E4000012808D110E02069B0B1C6F80090FFF782
:100E500003FE074605E00AE1FFF7FEFDC01B02287E
:100E6000C4D828688007F7D52868616920F0F800A1
:100E700040EAC10028600DE0C6F80080FFF7ECFDF5
:100E8000074604E0FFF7E8FDC01B022823D82868C6
:100E90008007F7D4207800072CD57948A169D9B10B
:100EA000C0F80090FFF7D8FD074604E0FFF7D4FD37
:100EB000C01B02280FD8686A8007F7D571484FF425
:100EC000FA510068B0FBF1F0009000BF0098411E9D
:100ED0000091FAD20EE080E0C0F80080FFF7BCFD80
:100EE000074604E0FFF7B8FDC01B022875D8686A02
:100EF0008007F7D42078400760D5E8690027C00054
:100F000008D4E86940F08050E861E869012700F002
:100F1000805000905C480168C90513D4016883467D
:100F200041F480710160FFF797FD824606E000BF43
:100F3000FFF792FDA0EB0A0064284ED8DBF8000012
:100F4000C005F5D5E06801280AD008B1052813D0FE
:100F5000286A20F001002862286A20F0040002E0DC
:100F6000286A40F001002862E06841F2883B98B1AD
:100F7000FFF772FD82460BE0286A40F00400286209
:100F8000EEE700BFFFF768FDA0EB0A0159455AD80C
:100F9000286A8007F6D50CE0FFF75EFD824605E083
:100FA000FFF75AFDA0EB0A0159454CD8286A800783
:100FB000F6D41FB1E86920F08050E861E06988B399
:100FC0006968C1F38101022944D00228C6F8608013
:100FD00004D0FFF741FD044638E034E0FFF73CFD64
:100FE000074604E0FFF738FDC01B02282BD828680D
:100FF0008001F7D4206AB0F5803F05D16868A16808
:1010000020F4003008436860D4E9080108436968A7
:1010100021F4741108436860C6F86090FFF71CFD66
:10102000044606E025E000BFFFF716FD001B02287E
:1010300009D828688001F7D51BE000BFFFF70CFD39
:10104000001B022802D90320BDE8F88F2868800120
:10105000F4D40EE00128F7D06868226A00F48031E9
:10106000914204D1616A00F47010884201D00120DD
:10107000EAE70020E8E700000010024000004242DA
:10108000800442420C0000200070004010B5401E59
:10109000B0F1807F01D3012010BD4FF0E0246061EA
:1010A0000F21601701F033FD0020A06107202061AF
:1010B000002010BD7047704710B590F83C20012A01
:1010C00022D0012280F83C20CA688C6822F4407249
:1010D00022434C6822F4806222430C6822F40062AE
:1010E00022430C6922F4805222434C6922F40052BC
:1010F0002243C969002322F480420A4301684A64FA
:1011000080F83C30002010BD022010BD70B590F872
:101110003C20012A2CD0012480F83C40022280F897
:101120003D2003685A689D6822F070060A683243C1
:101130005A60104B02689A420ED00F4B9A420BD065
:10114000B2F1804F08D00D4B9A4205D00C4B9A4219
:1011500002D00C4B9A4204D1496825F08003194310
:10116000916080F83D40002180F83C10084670BD39
:10117000022070BD002C01400034014000040040FA
:1011800000080040000C004010B5040003D094F8A3
:101190003D0010B107E0012010BD002084F83C00A4
:1011A000204600F01FF8022084F83D00211D206831
:1011B00001F0D0F9012084F8460084F83E0084F85C
:1011C0003F0084F8400084F8410084F8420084F82D
:1011D000430084F8440084F8450084F83D00002072
:1011E00010BD000008B5174A01681748914207D1A1
:1011F000816941F400618161806900F400601EE052
:10120000B1F1804F14D0114A914219D1C16941F016
:101210001001C161C069002200F01000009001219E
:101220003620FFF785FCBDE808403620FFF772BC8A
:10123000C16941F00101C161C06900F00100009085
:1012400008BD0000002C01400010024000100040CA
:1012500090F83D10012901D001207047022180F84B
:101260003D100168CA6842F00102CA6000680E4978
:1012700088420ED00D4988420BD0B0F1804F08D083
:101280000B49884205D00B49884202D00A4988425E
:1012900004D1816801F00701062903D0016841F0FB
:1012A0000101016000207047002C01400034014022
:1012B0000004004000080040000C004070B50446E7
:1012C00090F83C00012817D0012584F83C500220FA
:1012D00084F83D002068826822F0770222F47F4281
:1012E00082600868502830D00DDC20284DD005DC05
:1012F00098B310283BD148E0022070BD302844D07C
:10130000402834D139E0602828D0702806D0B0F5C4
:10131000805F2CD0B0F5005F29D10AE0CB68D1E91D
:101320000121206801F069F92068816841F07701A6
:1013300009E0CB68D1E90121206801F05EF920685D
:10134000816841F48041816011E0CA684968206881
:1013500001F028FA5021206807E016E0CA684968C1
:10136000206801F030FA6021206801F050F984F81B
:101370003D50002084F83C0070BDCA684968206870
:1013800001F010FA40212068EFE72268014610467C
:10139000EBE72DE9F0410D46040003D094F83D0041
:1013A00018B108E00120BDE8F081002084F83C007D
:1013B000204600F041F8022084F83D002068816852
:1013C00044F2070291438160211D206801F0C2F8B8
:1013D000226890689169166A2B68AF69034340F2EE
:1013E0000330814341EA0721A868EF6908434FF6BB
:1013F000FC418843E96840EA0720014328692F6AD5
:10140000000140EA0730084369686D6926F022064A
:1014100046EA0515294393602268906154F8460B0B
:101420000162012004F81F09E0752076E07620773C
:10143000A0750020B7E7000010B586B0002100912C
:10144000019102910391364C02683649C023364817
:10145000A24211D1CA6942F00202CA61CA6902F00D
:10146000020204928A6942F004028A618969009347
:1014700001F00401049137E02C4CA2421FD1C8694D
:1014800040F00400C861C86900F004000490886955
:1014900040F0200088618869694600F020000490CF
:1014A0004FF4405000902248FFF7D0F9214841689E
:1014B00041F0E06141F48051416006B010BD1E4C26
:1014C000A24216D1CA6942F00802CA61CA6902F092
:1014D000080204928A6942F004028A61896901F073
:1014E00004010491032100914FEA0D01FFF7AEF9C9
:1014F000E3E712488242E0D1886940F400508861F5
:10150000886900F400500490886940F010008861F8
:101510008869694600F01000049000930848E5E7E8
:101520000004004000100240000801400008004094
:101530000014014000000140000C00400034014054
:101540000010014070B590F83E60044690F83F509E
:1015500090F8423090F84320022021B104290ED0A7
:10156000012E1BD114E0012E18D1012B16D184F8C5
:101570003E0084F8420001220021206820E0012D75
:101580000CD1012A0AD184F83F0084F8430014E00A
:10159000012D03D1012B01D1012A01D0012070BD01
:1015A00084F83E0084F83F0084F8420084F8430049
:1015B00001220021206801F013F801220421206893
:1015C00001F00EF82068016841F00101016000207F
:1015D00070BD704770B50446006801694FF00005A2
:1015E000C943890715D4C168C943890711D4E91EC5
:1015F000016101202077206880698007204602D0A1
:10160000FFF7E7FF04E000F0FBF8204600F08AF95E
:10161000257720680169C943490717D4C168C943C0
:10162000490713D46FF0040101610220207720687C
:10163000806910F4407F204602D0FFF7CAFF04E023
:1016400000F0DEF8204600F06DF92577206801698A
:10165000C943090716D4C168C943090712D46FF0FA
:1016600008010161042020772068C06980072046B6
:1016700002D0FFF7AEFF04E000F0C2F8204600F011
:1016800051F9257720680169C943C90617D4C16893
:10169000C943C90613D46FF01001016108202077F7
:1016A0002068C06910F4407F204602D0FFF791FF08
:1016B00004E000F0A5F8204600F034F92577206812
:1016C0000169C943C90708D1C168C943C90704D121
:1016D000891E0161204600F081F920680169C94333
:1016E000090609D4C168C943090605D46FF0800111
:1016F00001612046FFF7DEFC20680169C943490605
:1017000009D4C168C943490605D46FF0400101619D
:10171000204600F073F920680169C94389060BD49B
:10172000C168C943890607D46FF0200101612046D2
:10173000BDE87040FFF7BFBC70BD000030B585B09C
:1017400000210091019102910391274A01682748E5
:101750000224274D914218D1816941F040018161F5
:101760008069694600F0400004904FF4D440CDE910
:10177000000420480394FFF769F8686820F0C0006F
:1017800040F0E06040F0C0002BE0B1F1804F29D183
:10179000816941F008018161816901F008010491CA
:1017A000816941F0040181618069694600F00400AB
:1017B000049040F60840CDE900040F480394FFF779
:1017C00045F84FF40040CDE9000469460B48039406
:1017D000FFF73CF8686820F4407040F0E06040F4A7
:1017E0004070686005B030BD002C01400010024020
:1017F0000000014000180140000C014000080140B9
:10180000704770B5044690F83C000D4601280AD098
:10181000012084F83C0042B1042A18D0082A2AD0BA
:101820000C2A4DD139E0022070BD206800F0F8FE8E
:101830002068816941F0080181612068816921F097
:1018400004018161206881692A69114311E02068DF
:1018500000F016FF2068816941F400618161206811
:10186000816921F480618161206881692A6941EA86
:101870000221816124E0206800F038FF2068C169FE
:1018800041F00801C1612068C16921F00401C16112
:101890002068C1692A69114311E0206800F05AFFED
:1018A0002068C16941F40061C1612068C16921F407
:1018B0008061C1612068C1692A6941EA0221C16170
:1018C000002084F83C0070BD10B5040003D094F8EB
:1018D0003D0010B107E0012010BD002084F83C005D
:1018E000204600F01EF8022084F83D00211D2068EB
:1018F00000F030FE012084F8460084F83E0084F8B1
:101900003F0084F8400084F8410084F8420084F8E5
:10191000430084F8440084F8450084F83D0000202A
:1019200010BD70477047000010B50446022249B14F
:1019300004290ED0082913D094F84100012816D0AC
:10194000012010BD94F83E000128F9D184F83E2012
:101950000FE094F83F000128F2D184F83F2008E01E
:1019600094F840000128EBD184F8402001E084F88D
:1019700041200122206800F033FE13492068134AF9
:10198000884201D0904203D1436C43F40043436446
:10199000206888420DD090420BD0B0F1804F08D023
:1019A0000B49884205D00B49884202D00A49884237
:1019B00004D1816801F00701062903D0016841F0D4
:1019C00001010160002010BD002C014000340140E5
:1019D0000004004000080040000C0040064910B51B
:1019E000884207D100F020FD01F02EFEBDE8104036
:1019F00001F09CBC10BD0000C0010020704738B54C
:101A0000044690F83E0020281CD181B17AB194F8A8
:101A10003C00012816D0012084F83C0020632046B9
:101A200001F022F8002803D1216B012901D0012007
:101A300038BD21680A684A680092CA6842F01002FC
:101A4000CA6038BD022038BD70477047F8B50268DB
:101A500004461068D168536910F00F0F4FF000056D
:101A600053D003F0010601F4907737435FD0C207EB
:101A700005D0CA0503D5226C42F001022264420758
:101A800005D5DA0703D0226C42F0020222648207F5
:101A900005D5DA0703D0226C42F004022264020763
:101AA00007D501F02002324303D0226C42F0080235
:101AB0002264226C002A34D0800604D5880602D520
:101AC000204600F01AFF20684069216CC0F38010A6
:101AD000090700D430B3204600F0EEFE20684169CB
:101AE00049061BD5416921F040014161A06BA8B1B5
:101AF00058494163A06BFEF777FC002811D0A06B1A
:101B0000416B01B0BDE8F040084783060FD58B0656
:101B10000DD52046BDE8F84000F0EFBE2046FFF7A7
:101B200094FFF8BD2046FFF790FF2564F8BD266BB3
:101B30002023012E52D1C60650D5CE064ED51068B0
:101B400050680090506940062AD5A16B086840682B
:101B50000004000CEAD0A68D8642E7D9E0858869AA
:101B6000202818D0D06820F48070D06020684169A7
:101B700021F0010141612068416921F0400141618A
:101B800084F83E3025632068C16821F01001C160EF
:101B9000A06BFEF705FCA08DE18D401A81B219E023
:101BA000A08DE18D401A81B2E08D0028BED00029C1
:101BB000BCD0D06820F49070D0602068426922F0D8
:101BC0000102426184F83E3025632068C26822F039
:101BD0001002C2602046FFF737FFF8BD05062BD57F
:101BE0000D0629D594F83D002128F6D1A068B0F55E
:101BF000805F01D12069B0B1206A411C2162216857
:101C000000784860E08C401E0004000CE084E4D1C1
:101C10002068C16821F08001C1602068C16841F07E
:101C20004001C160F8BD206A0088C0F30800506020
:101C3000206A801C2062E5E74006F3D54806F1D50E
:101C4000D168204621F04001D16084F83D3000F099
:101C5000A5F8F8BDEB27000870B5040004D094F88F
:101C60003D00002510B106E0012070BD84F83C5015
:101C7000204600F023F8242084F83D002068C16845
:101C800021F40051C160204600F092FE20680169F5
:101C900021F4904101612068416921F02A014161EC
:101CA0002068C16841F40051C1602564202084F897
:101CB0003D0084F83E00002070BD0000F0B585B006
:101CC00000240646009401940294039400682D4970
:101CD000884254D12C48816941F4804181618169F5
:101CE00001F480410491816941F0040181618069BE
:101CF000264D00F0040004904FF400700090022084
:101D000001900320039069462846FEF79FFD2815A1
:101D1000CDE90004694628460294FEF797FD1D4D63
:101D20001B488027C5E90004C5E902472C616C61A6
:101D3000AC612846EC61FEF713FD08B1FEF72EFBFF
:101D4000B5636E62134D12484435143801C5102036
:101D500091C5104845F8104944306C61AC61EC61A4
:101D6000FEF7FEFC08B1FEF719FB75630022114671
:101D700025206E62FEF7DCFE2520FEF7CBFE05B0C7
:101D8000F0BD000000380140001002400008014092
:101D90005800024094020020704770477047FEE7E9
:101DA0000D4808B5416941F00101416140690022D7
:101DB00000F00100009011460E20FEF7B9FE0E2043
:101DC000FEF7A8FE002211460F20FEF7B1FEBDE887
:101DD00008400F20FEF79EBE001002402DE9F04F94
:101DE00085B00026484800960196029603968169C0
:101DF00041F004018161816901F00401049181696C
:101E000041F008018161816901F008010491816953
:101E100041F080018161816901F080010491816953
:101E200041F480718161816901F48071049181695B
:101E300041F040018161816901F0400104918169B3
:101E400041F020018161816901F0200104918169E3
:101E500041F0100181618069DFF8B08000F010006E
:101E60000490002206214046FEF7F1FDDFF8A09025
:101E70004FF47847002239464846FEF7E8FDDFF880
:101E800094A0002201215046FEF7E1FDDFF888B062
:101E9000002207215846FEF7DAFD062000900125B2
:101EA0000224CDE90154694640460394FEF7CEFC76
:101EB0000097CDE90154694648460394FEF7C6FCF5
:101EC0000095CDE90154694650460394FEF7BEFCE7
:101ED0000327CDE90264CDE9007569465846FEF74F
:101EE000B5FC04208DE8E10069465846FEF7AEFCDB
:101EF0000820CDE90006694658460296FEF7A6FC82
:101F000005B0BDE8F08F000000100240000C014059
:101F1000001C0140002001400014014010B596B0A3
:101F200000240F9410941194129413941C21684669
:101F30001494FEF79DF9202107A8FEF799F934487B
:101F4000324901604721C0E9011444F61F61C0E92C
:101F5000031444618461FFF717F908B1FEF71EFA14
:101F60004FF480500F900FA92948FFF7A7F908B147
:101F7000FEF714FA2648FFF7A7FC08B1FEF70EFAA1
:101F8000139413A922481494FFF7C0F808B1FEF780
:101F900005FA6020CDE900040294039404940594AA
:101FA000002269461A480694FFF72BFC08B1FEF799
:101FB000F5F9042269461648FFF723FC08B1FEF73D
:101FC000EDF9082269461248FFF71BFC08B1FEF73D
:101FD000E5F90C2269460E48FFF713FC08B1FEF73D
:101FE000DDF90794089409944FF400500A94CDE960
:101FF0000B4007A906480E94FFF75EF808B1FEF7FC
:10200000CDF90348FFF79AFB16B010BD002C014034
:102010005800002010B58EB000240794089409944D
:102020000A940B941C2168460C94FEF721F92A4867
:102030004FF0804101604721C0E9011444F61F615F
:10204000C0E903148461FFF79FF808B1FEF7A6F911
:102050004FF48050079007A91F48FFF72FF908B1E8
:10206000FEF79CF91C48FFF72FFC08B1FEF796F924
:102070000B940BA918480C94FFF748F808B1FEF729
:102080008DF96020CDE900040294002269461248CF
:102090000494FFF7B6FB08B1FEF780F90422694605
:1020A0000D48FFF7AEFB08B1FEF778F90822694644
:1020B0000948FFF7A6FB08B1FEF770F90C22694644
:1020C0000548FFF79EFB08B1FEF768F90248FFF7E5
:1020D00035FB0EB010BD0000A000002010B58CB084
:1020E00024216846FEF7C4F80024164809941449D0
:1020F0000A94C0E900144FF6FF71C0E9024104617F
:1021000084610320CDE900040120CDE90204049498
:10211000CDE90540079469460A480894FFF739F964
:1021200008B1FEF73BF9099409A906480A94FEF79D
:10213000EDFF002801D0FEF731F90CB010BD000012
:1021400000040040E800002010B58CB0242168464F
:10215000FEF78EF800241648099414490A94C0E941
:1021600000144FF6FF71C0E902410461846103204D
:10217000CDE900040120CDE902040494CDE9054035
:10218000079469460A480894FFF703F908B1FEF777
:1021900005F9099409A906480A94FEF7B7FF002833
:1021A00001D0FEF7FBF80CB010BD000000080040A5
:1021B0003001002010B58CB024216846FEF758F895
:1021C00000241648099414490A94C0E900144FF6F3
:1021D000FF71C0E90241046184610320CDE900047C
:1021E0000120CDE902040494CDE905400794694635
:1021F0000A480894FFF7CDF808B1FEF7CFF8099424
:1022000009A906480A94FEF781FF002801D0FEF7CD
:10221000C5F80CB010BD0000000C00407801002093
:102220001CB500240F4800940D490194016040F250
:10223000CF21C0E9011442F20F718461C160FEF741
:10224000A3FF08B1FEF7AAF8009469460548019477
:10225000FEF75CFF002801D0FEF7A0F81CBD0000CF
:1022600000100040C001002010B58CB02421684649
:10227000FDF7FEFF00241648099414490A94C0E9AA
:1022800000144FF6FF71C0E90241046144618461AA
:102290000320CDE900040120CDE902040494CDE936
:1022A0000540079469460A480894FFF772F808B198
:1022B000FEF774F8099409A905480A94FEF726FF69
:1022C000002801D0FEF76AF80CB010BD00340140C0
:1022D000080200200C4810B50A4901604FF416515D
:1022E0004160002181600C22C160C0E9041281615B
:1022F000C161FFF7B1FC002803D0BDE81040FEF734
:102300004DB810BD0038014050020020FEE7FEE746
:102310002DE9F047404881785A297BD1C2780121C4
:1023200021EA020482460346D2431538C2F3401C18
:102330004474C2F3C0048474C2F30014C47280F8FD
:1023400009C0C2F3801880F80C80C2F3C017A14600
:1023500087721C79A1438171E143C1F34004047287
:10236000C1F380044471C1F3C004C471C1F3001609
:10237000C1F34015C673C1F3801445730474C1F3EF
:10238000C01181739AF80130412B03D05146732B51
:1023900012D026E0ACEB0702C2EBC212C270A9EB6E
:1023A0000802C2EBC212691A0271C1EBC11141707D
:1023B000311BC1EBC11113E0C2F34003C374C2F37C
:1023C00080020275CA79803AC2700A7AD24380329A
:1023D00002714A79803A42709AF80610C9438031F6
:1023E000817090F903200021121D082A00D8C170C5
:1023F00090F90420121D082A00D8017190F90120DB
:10240000121D082A00D8417090F90220121D082AD6
:1024100000D88170BDE8F08755030020002000BF80
:10242000401CBF28FBDB704770B5104E0022042112
:102430003046FEF70CFB012000F01CF80C4D287014
:10244000422000F017F868700224FF2000F012F814
:102450002855641C092CF8DB012204213046FEF7C4
:10246000F6FABDE87040FFF753BF000000140140CA
:10247000550300202DE9F0410026184F044635464B
:10248000E00701D0012200E0002202213846FEF7D9
:10249000DEFA0122640811463846FEF7D8FAFFF743
:1024A000BDFF002201213846FEF7D1FA7608082147
:1024B0003846FEF7C7FA46EAC010C6B2FFF7AEFFCD
:1024C000012211463846FEF7C2FAFFF7A7FF6D1C3E
:1024D000082DD5DB3046BDE8F08100000014014036
:1024E00070477047FEF7BEBA30B58FB028216846F6
:1024F000FDF7BEFE14210AA8FDF7BAFE012108046B
:10250000CDE900100024029402250491CDE9075082
:102510004FF4E01009906846FEF728FC08B172B647
:10252000FEE70F20CDE90A054FF48060CDE90C40AD
:1025300002210AA80E94FEF72DFB002801D072B6E6
:10254000FEE70FB030BD70470148FFF743B8000009
:10255000C0010020F0B502681C4B1D4D1D4E1E4FE2
:102560001E4C4FF0804C984209D0A04207D06045E5
:1025700005D0A84203D0B04201D0B84204D122F025
:10258000700E4A6842EA0E02984209D0A04207D073
:10259000604505D0A84203D0B04201D0B84203D173
:1025A00022F44075CA682A434D6922F080022A430A
:1025B00002608A68C2620A688262984201D0A042C0
:1025C00001D10969016301214161F0BD002C014085
:1025D0000004004000080040000C004000340140AE
:1025E00010B501F01F030121046A99408C43046275
:1025F000016A9A401143016210BD10B5846842EA35
:10260000032224F47F440A432243826010BD82687F
:1026100022F070020A4342F0070181607047000017
:10262000F0B5026A22F001020262036A426884691C
:10263000124E24F073050C682C4323F002058B68BE
:102640002B430D4DA84201D0B04205D123F008071D
:10265000CB683B4323F00403A84201D0B04205D12C
:102660004D6922F4407215438A692A4342608461AD
:10267000496841630362F0BD002C01400034014011
:10268000F0B5026A22F010020262026A43688469AD
:102690000D6824F4E64444EA05248D6822F0200203
:1026A00042EA05120F4D104EA84201D0B04206D1A9
:1026B000CF6822F0800242EA071222F04002A842CC
:1026C00001D0B04207D14D6923F4406343EA85034A
:1026D0008D6943EA850343608461496881630262CE
:1026E000F0BD0000002C014000340140F0B5026A4A
:1026F00022F480720262026A4368C46922F40072A2
:1027000024F073050C68124E2C438D6842EA0522B2
:102710000E4DA84201D0B04206D1CF6822F400622B
:1027200042EA072222F48062A84201D0B04207D1D7
:102730004D6923F4405343EA05138D6943EA0513B9
:102740004360C4614968C1630262F0BD002C01406E
:102750000034014030B5026A22F480520262046AF9
:102760004268C3690D6823F4E64343EA05238D6894
:1027700024F4005444EA0534084DA84202D0084D20
:10278000A84204D14D6922F4804242EA8512426097
:10279000C36149680164046230BD0000002C01403F
:1027A0000034014010B5036A046A24F00104046295
:1027B000846924F0F00444EA021423F00A020A4374
:1027C0008461026210BD10B5036A23F01003036236
:1027D0008369046A23F4704343EA023224F0A003BD
:1027E00043EA01118261016210BD10B5406A002107
:1027F000C185C184FFF729F910BD70B5446A20680E
:10280000406994F83D10C0F3C0100025212904D17F
:1028100018B1E584204600F067F82068406994F814
:102820003E10C0F38010222904D118B1E58520465E
:1028300000F042F8206C40F0100020642046FFF7C2
:1028400004F970BD10B50146406A09680968890637
:102850001BD40021C1850168CA6822F48072CA6055
:1028600001684A6922F001024A6101684A6922F05E
:1028700040024A61202180F83E10016B012904D1F9
:102880000168CA6822F01002CA60016B012902D0F7
:10289000FFF782FA10BD818DFFF7D6F810BD10B595
:1028A000406A016B012902D0FFF777FA10BD818DD4
:1028B0004908FFF7C9F810BD0168CA6822F4907290
:1028C000CA6001684A6922F001024A61016B01296C
:1028D00004D10168CA6822F01002CA60202180F881
:1028E0003E100021016370470168CA6822F0C002EF
:1028F000CA60202180F83D10704708B590F83E105E
:10290000222901D0022008BD82684FF480539A42E8
:1029100001D1016921B1816A9A421BD04AB10AE012
:102920000268816A5268C2F308020A80816A891CBF
:1029300008E0026972B10268526802F07F020A7010
:10294000816A491C8162C18D491E0904090CC18537
:1029500003D019E002685268F1E70168CA6822F002
:102960002002CA600168CA6822F48072CA600168E5
:102970004A6922F001024A61202180F83E10016B71
:10298000012903D0FFF708FA002008BD00210163E8
:102990000168CA6822F01002CA6001680A68D2069B
:1029A00002D50A6849680091818DFFF74DF8EBE781
:1029B00070B5044600680169E26821F44051114392
:1029C00001612169A0680843616908432168CA68F8
:1029D00041F20C639A430243CA6020684169A269CC
:1029E00021F44071114341611E492068884202D19F
:1029F000FEF776F901E0FEF763F900EBC00101EBA9
:102A00000012606864218000B2FBF0F3B3FBF1F3C5
:102A10006FF018067343B2FBF0F5B2FBF0F605EB6E
:102A20008305322303EB0515B5FBF1F5B6FBF1F693
:102A300005F0F00505EB0615B2FBF0F6B2FBF0F081
:102A4000B0FBF1F06FF01802504306EB800003EB8F
:102A50000010B0FBF1F0216800F00F0028448860FE
:102A600070BD00000038014038B5816282850025C4
:102A7000134604460564222084F83E00A26B1348E6
:102A80009062A26B1248D062A26B12481063A06BD6
:102A90000A4645632168A06B091DFDF79FFE20686B
:102AA00001684168009184F83C50C16841F480712C
:102AB000C1602068416941F00101416120684169BC
:102AC00041F040014161002038BD00004528000868
:102AD0009F280008FB2700080148FEF7B7BF000049
:102AE00050020020FEE7490050EAC12018BF042030
:102AF0004A0D18BF40F0010040F2FF72B2EB515F87
:102B000008BF40F00200012808BF052070470907F0
:102B1000090E002804DB00F1E02080F80014704763
:102B200000F00F0000F1E02080F8141D70472DE93F
:102B3000F0414F1E00EBC7010446D1E900011546E4
:102B40001E4637F006020DD02A46334601F07AFCC5
:102B50007F1E04EBC703D3E9002301F0AFF937F080
:102B60000602F1D1022F25D0042F13D0062F18BF53
:102B7000BDE8F0812A46334601F064FCD4E90A231B
:102B800001F09CF92A46334601F05CFCD4E90823A5
:102B900001F094F92A46334601F054FCD4E90623A7
:102BA00001F08CF92A46334601F04CFCD4E90423A9
:102BB00001F084F92A46334601F044FCD4E90223AB
:102BC00001F07CF92A46334601F03CFCD4E90023AD
:102BD000BDE8F04101F072B9012202F0ACBA002266
:102BE00013461046114601F025BA0000024A0020A3
:102BF000110702F0A0BA000001FDFFFF2DE9F04D22
:102C00000546DFF8388221F000408D4F82B00C4637
:102C1000404520DBA0EB080129430BD089498842BD
:102C200001DC10D17DB102B028462146BDE8F04D4F
:102C3000FFF7D2BF002CC7BF0020014682483946AB
:102C400002B0BDE8F08D0120FDF741FB02B0BDE808
:102C5000F04DFFF7C4BF7D49884244DA7C49814288
:102C6000A1BF79487B4902B0BDE8F08D2A462346D2
:102C70001046194601F0E6FB8346024676480E46AA
:102C80000B4606217844FFF752FF5A46334601F0BF
:102C9000D9FB074671488A465A4633460421784490
:102CA000FFF745FF5A46334601F0CCFB002243466E
:102CB00001F004F902460B463846514601F0BAF9D4
:102CC0002A46234601F0BEFB654A664B01F0EEFC46
:102CD0002A46234601F0EAFC02B05B4ABDE8F04D0B
:102CE0005C4B01F0E3BC002C4FF000024BDA46468F
:102CF00043462846214601F0E1F84FF0FF3202F04A
:102D00001AFA0446024658480D460B4606217844F6
:102D1000FFF70DFF22462B4601F094FB80465348F7
:102D20008A4622462B4604217844FFF700FF2246BC
:102D30002B4601F087FB0022334601F0BFF8064620
:102D40008B462046294600F077FF04460D46324662
:102D50005B464046514601F06DF922462B4601F094
:102D600071FB3F4A3F4B01F093FD22462B4601F099
:102D7000A5F8012202F0DFF902B03B46BDE8F04DB4
:102D8000314A01F093BC2D4B2846214601F08EFCC0
:102D90004FF0FF3202F0CFF905460E4600F04CFF2F
:102DA00000270C4680463A460B4601F087F88246DB
:102DB0008B463A4623461046194601F043FB2A4605
:102DC000334601F073FC52465B4601F033F982460C
:102DD00027488B462A46334606217844FFF7A7FE4C
:102DE0002A46334601F02EFBCDE9000121482A4650
:102DF000334604217844FFF79AFE2A46334601F011
:102E000021FB00220D4B01F059F802460B46DDE98B
:102E1000000101F00FF94246234601F013FB524630
:102E20005B4601F04BF83A46234601F047F802B002
:102E30000122BDE8F04D02F07EB900000000F03F35
:102E4000FB2109400000F07F182D44540000E03FB2
:102E50000000603CFB21F93F582500006E25000072
:102E6000075C143326A6913CCE240000E424000025
:102E700002240000182400002DE9FF41904D914EDE
:102E8000914FE87A914C01280CD1D4E90601CDE9A3
:102E9000020100208E490246CDE900013346394641
:102EA00000F026FD287B01280CD1D4E90601CDE9EC
:102EB0000201002086490246CDE90001854B3946D2
:102EC00000F016FD687A01280CD1D4E90601CDE99D
:102ED000020100207E490246CDE900017E4B3946C1
:102EE00000F006FDA87A01280CD1D4E90601CDE94D
:102EF0000201002076490246CDE90001774B3946B0
:102F000000F0F6FC687C01280CD1D4E90601CDE97B
:102F1000020100206E490246CDE9000133463946E0
:102F200000F0E6FCA87C01280CD1D4E90601CDE92B
:102F30000201002066490246CDE9000133463946C8
:102F400000F0D6FCE87B664E012813D1D4E90201DB
:102F50000022334600F0B2FFD4E90623CDE9022374
:102F6000D4E90423CDE9002302460B46D4E900014D
:102F700000F0BEFC287C012813D1D4E90201002214
:102F8000334601F085FCD4E90623CDE90223D4E9D8
:102F90000423CDE9002302460B46D4E9000100F0EA
:102FA000A7FC687B012811D1D4E900010022334637
:102FB00000F084FFD4E90623CDE90223D4E90423F9
:102FC000CDE90023D4E9022300F092FCA87B01287C
:102FD00011D1D4E900010022334601F059FCD4E9B3
:102FE0000623CDE90223D4E90423CDE90023D4E963
:102FF000022300F07DFC687901280DD1D4E9040199
:103000000022334600F05AFFD4E906238DE80F0072
:1030100094E80F0000F06CFCE87901280DD1D4E9A8
:1030200004010022334601F033FCD4E906238DE885
:103030000F0094E80F0000F05BFC287A01280FD104
:10304000D4E906010022334600F038FFCDE9020141
:10305000D4E90401CDE9000194E80F0000F048FC38
:10306000A87901280FD1D4E906010022334601F0E6
:103070000FFCCDE90201D4E90401CDE9000194E897
:103080000F0000F035FCD4E9060101F02BF900F047
:10309000E3FA0546D4E90C0100F082FD0746D4E9C5
:1030A0000A0100F07DFD0646D4E9080100F078FD34
:1030B00004B02B463A463146BDE8F04100F0ECBD85
:1030C00040030020000059C00000594020000020AB
:1030D000008056400000494000405F4000006940C9
:1030E0000000244010B50020A2B06649CDE90200DE
:1030F000CDE9000102460346634900F0F9FB3D2299
:1031000062490FA8FDF782F8604C14F83D0F8DF866
:10311000790060788DF87A00A0788DF87B00E078EF
:103120008DF87C0020798DF87D0060798DF87E0027
:10313000A0798DF87F00E0798DF88000207A8DF8F5
:103140008100607A8DF8820000200E90382213A949
:103150006846FDF75BF80DF13C0C9CE80F0000F0B1
:1031600091FD3D2249490FA8FDF750F820788DF8D0
:10317000790060788DF87A00A0788DF87B00E0788F
:103180008DF87C0020798DF87D0060798DF87E00C7
:10319000A0798DF87F00E0798DF88000207A8DF895
:1031A0008100607A8DF8820004200E90382213A9E5
:1031B0006846FDF72BF80DF13C0C9CE80F0000F081
:1031C00061FD3D2231490FA8FDF720F820788DF8E8
:1031D000790060788DF87A00A0788DF87B00E0782F
:1031E0008DF87C0020798DF87D0060798DF87E0067
:1031F000A0798DF87F00E0798DF88000207A8DF835
:103200008100607A8DF8820008200E90382213A980
:103210006846FCF7FBFF0DF13C0C9CE80F0000F04A
:1032200031FD3D2219490FA8FCF7F0FF20788DF8F9
:10323000790060788DF87A00A0788DF87B00E078CE
:103240008DF87C0020798DF87D0060798DF87E0006
:10325000A0798DF87F00E0798DF88000207A8DF8D4
:103260008100607A8DF882000C200E90382213A91C
:103270006846FCF7CBFF0FAC94E80F0000F002FDAE
:1032800022B010BD0080564000005940A000002030
:103290002DE9F05F1446DDE90C69DDE90AAB1D4656
:1032A000002207468846134601F090F833D31C4AA3
:1032B0001C4B3846414601F0C3F92CD3002213467B
:1032C0002046294601F082F825D3DFF85480154FB7
:1032D00042463B462046294601F0B2F91BD3002264
:1032E00013465046594601F071F814D342463B4606
:1032F0005046594601F0A4F90DD30022134630463A
:10330000494601F063F806D30022074B3046494690
:1033100001F096F902D20020BDE8F09F0120FBE702
:103320004AD8124DFB21094000805640FFF7A4BD4A
:103330002DE9F84F04460D4621F0004000917349F5
:10334000814211DC7249884201DC06D12CB1204651
:103350002946BDE8F84FFFF73FBC6E48002DCCBFB3
:103360006D496E49BDE8F88F6D49814211DD6D49A7
:103370008142D8BF4FF0FF366DDD20462946FFF76A
:10338000B2FB042808BFFFF731FC20462946BDE800
:10339000F88F6549654F25F00045814233DD64496A
:1033A000814219DD002632464FF0804320462946EF
:1033B00000F084FD80468A4601222046294601F01D
:1033C000BAFE00223B4601F063FA4246534600F043
:1033D00031FE04460D463EE001260022BA463B4639
:1033E0002046294600F06AFD80460F4600225346DB
:1033F0002046294601F04CFA42463B4600F01AFEB0
:1034000004460D4627E04B4981421BDDDFF828A129
:103410000226002253462046294601F013F80022D6
:103420003B4600F04BFD80460F46002253462046A7
:10343000294601F02DFA42463B4600F0FBFD0446CA
:103440000D4608E0032622462B4600203B4900F0AB
:10345000F1FD04460D4622462B461046194600F063
:10346000F1FF8B46824602460B4600F0EBFF074613
:103470000246334888460B4606217844FFF757FB3F
:1034800052465B4600F0DEFF82462E488B463A46A7
:10349000434605217844FFF74AFB3A46434600F08D
:1034A000D1FF02460B46002E504659460CDA00F07A
:1034B00005FD22462B4600F0C5FF01B022462B46F3
:1034C000BDE8F04F01F0F2B800F0F8FC22462B46C0
:1034D00000F0B8FF1C4A7A4402EBC603D3E900238C
:1034E00001F0D6F922462B4601F0D2F9174A7A4468
:1034F00002EBC603D3E9002301F0D8F8009A002AB2
:10350000B8BF81F00041BDE8F88F00000000104412
:103510000000F07F182D4454FB21F93FFB21F9BF37
:103520000000DC3F0000203E0000F33F0000F03FC1
:103530000000E63F008003400000F83F0000F0BFBD
:103540001A1E0000D81D0000761D00003E1D000060
:103550002DE9F0410D46144606464719381901F089
:10356000F9FBDFF85C80414601F040FC014615485C
:1035700000F00DFBA81B204401F0ECFB414601F0DC
:1035800035FC01460F482C3000F001FBE01B01F038
:10359000E1FB414601F02AFC01460A48583000F0A0
:1035A000F6FA701B204401F0D5FB414601F01EFCE9
:1035B000BDE8F04101460348843000F0E8BA00005D
:1035C000CDCC4C3E600300202DE9FC411C4800F0AE
:1035D000CFFA1B482C30074600F0CAFA184858307A
:1035E000064600F0C5FA16488430804600F0C0FA5E
:1035F000144C00234FF07E5500941A46294610487B
:10360000019400F0C6FA002300941A462946384671
:10361000019400F0BEFA002300941A462946304671
:10362000019400F0B6FA002300941A462946404659
:10363000019400F0AEFABDE8FC4100F011B90000C1
:10364000600300200000C84210B500F017FCBDE880
:10365000104000F04FBA000010B501F07BFB0649A6
:1036600001F0C4FB054901F097FA054901F026FA7B
:10367000BDE8104001F052BB0000C84200001041FC
:103680000000FA4310B5054A054B00F0DBFEBDE82B
:1036900010400022034B00F0CDBC00004AD8124D70
:1036A000FB2109400080664010B500F09FFAFFF74B
:1036B0008BFFBDE81040FFF715BD000010B50C46AC
:1036C0000168496A064A09B2116000680022426234
:1036D000084601F03FFB034901F05EFA206010BD8F
:1036E0001000002033335341FDF7C4F9FEF7FCFE10
:1036F000FEF774FBFEF754FBFEF78CFCFEF7EEFCC6
:10370000FEF722FDFEF756FDFEF7AEFDFEF7E2FDE9
:10371000FEF704FCFEF784FDFFF7C6FFFEE700009E
:103720002DE9F05F0446DFF8209148481D46164613
:103730000F464C4506D2002202218046FDF787F94C
:10374000012205E0012202218046FDF780F90022D6
:1037500004214046FDF77BF924F0004001F082F996
:10376000DFF8ECA00022534600F06CFE00F0EAFD0A
:10377000DFF8E080D8F800104863374C4FF4006160
:103780004FF4805B4F4505D200222046FDF75FF9DC
:10379000012204E001222046FDF759F90022594692
:1037A0002046FDF754F927F0004001F05BF90022B4
:1037B000534600F047FE00F0C5FDD8F8001047461C
:1037C00088634FF400514FF480484E4505D20022E3
:1037D0002046FDF73CF9012204E001222046FDF7D6
:1037E00036F9002241462046FDF731F926F0004027
:1037F00001F038F90022534600F024FE00F0A2FD4B
:103800003968C863154E4FF400414D4505D200227A
:103810002046FDF71CF9012204E001222046FDF7B5
:1038200016F9002201213046FDF711F925F000407C
:1038300001F018F90022534600F004FE00F082FD6A
:1038400039680864BDE8F09F00008080000C0140EA
:103850000000694058000020001C01400020014089
:1038600010B53C211C48FDF76DFE1B4C2068C1685B
:1038700041F00101C1603C211848FDF763FE20685A
:10388000C16841F00101C1603C211548FDF75AFEB5
:103890002068C16841F00101C1603C211148FDF779
:1038A00051FE2068C16841F00101C16000210E484D
:1038B000FEF73AF804210C48FEF736F808210A48CA
:1038C000FEF732F80C210848FEF72EF8BDE810404C
:1038D0000648FDF7BDBC0000E800002030010020D4
:1038E000780100200802002058000020C0010020BC
:1038F0002DE9F04F82468B468FB090469946104690
:10390000194600F09FFD04460D4652465B46039162
:103910001046194600F096FD074622462B460191B7
:1039200000F0CCFA00F088F90022404B00F08AFD4C
:1039300006460791384600223D4B039D019900F051
:10394000BDFA22462B4600F0B9FA0022394B00F0AE
:103950009FFF3246079B00F06DFBFFF74FF90646CD
:103960000D4652465B464046494600F063FBFFF772
:10397000DFFC32462B4600F0A1FA05460E463846DB
:1039800000222D4B019900F091FE2246039B00F08E
:103990007FFF0022264B00F04DFBFFF72FF9044676
:1039A0000F46DDE91801FFF76DFE009104902246F5
:1039B0003B462846314600F081FA204A204B00F071
:1039C00067FF009B049A00F079FACDE90401DDE974
:1039D0001A01CDE90201DDE90401CDE90001224629
:1039E0003B4628463146FFF753FC00281BD0DDE953
:1039F0001A0100F077FC0D90DDE9180100F072FC6F
:103A00000C904046494600F06DFC804650465946B1
:103A100000F068FC03970095CDE90164DDE90C2313
:103A2000414600F00BFA0FB0BDE8F08F000079407E
:103A30000088E3400088C340006AE8404AD8124D3D
:103A4000FB2109402DE9F0410446C7690762D4E92A
:103A50000501274D01F0C8FAA84628600546294609
:103A6000606A01F02BF8E561064660623946284637
:103A700001F0BAFAC8F804003046E16801F082FAB1
:103A800001D2E0686062E068616A80F0004001F0A5
:103A900079FA03D2E06880F0004060624546A06891
:103AA000D8F8041001F0A2F90746616A606801F0D5
:103AB0009DF906462068296801F098F9314600F022
:103AC000FDFF394600F0FAFFA062216901F05AFAC1
:103AD00001D22069A0622069A16A80F0004001F053
:103AE00051FA03D2206980F00040A062BDE8F08165
:103AF000140000202DE9F0411B4890F9012090F9B5
:103B0000041090F90300FFF723FD184C2046D4F869
:103B1000B010403400F039F8A4F114000546616F8C
:103B200000F033F804F118000646A16F00F02DF8FC
:103B300004F144000746E16F00F027F80B48FFF757
:103B400081FF2846FFF77EFF3046FFF77BFF3846B0
:103B5000FFF778FF54F8180CE36E226C6169BDE83A
:103B6000F041FFF7DDBD00004003002060030020AE
:103B70000021C161016281618160416001608162F7
:103B8000016141614162C16070478161704741617B
:103B9000704730B5DDE90345046180E82E0030BD93
:103BA00010B500220B4B00F04DFC0B4A0B4B00F004
:103BB00041FA00220A4B00F045FC0022094B00F0BC
:103BC00039FA0022084B00F079F9BDE8104000F006
:103BD00089BB0000008066404AD8124DFB21094095
:103BE000000059400000224000407F40064800216C
:103BF000142201734160816041730170417000F1D2
:103C00000E010248FDF7FBBE1C03002050020020FD
:103C10000FB4DDE9121039B1042908D00829009940
:103C200008D0086404B0704700994863FAE7009927
:103C30008863F7E7C863F5E72DE9F04106460F46CC
:103C400000F040FD041E0D4618BF0120284320F05F
:103C50000040C0F17F6000F1E040C00F0ED0301C8A
:103C600018BF0120384320F00040C0F17F6000F110
:103C7000E040C00F04BF0120FCF729FB2046294685
:103C8000BDE8F0810FB410B502A81499FDF74CFE01
:103C900010BC5DF814FB00002DE9F041A2B0154600
:103CA0000E46074698463D22634910A8FCF7AEFA37
:103CB000614C14F83D0F8DF87D0060788DF87E0022
:103CC000A0788DF87F00E0788DF8800020798DF85D
:103CD000810060798DF88200A0798DF88300E07909
:103CE0008DF88400207A8DF88500607A8DF8860042
:103CF0000020CDE90E07382214A96846FCF786FAA1
:103D00000DF1400C9CE80F00FFF782FF3D224A496D
:103D100010A8FCF77BFA20788DF87D0060788DF88C
:103D20007E00A0788DF87F00E0788DF88000207903
:103D30008DF8810060798DF88200A0798DF883007C
:103D4000E0798DF88400207A8DF88500607A8DF80E
:103D500086000420CDE90E06382214A96846FCF737
:103D600055FA0DF1400C9CE80F00FFF751FF3D2282
:103D7000314910A8FCF74AFA20788DF87D00607868
:103D80008DF87E00A0788DF87F00E0788DF88000B7
:103D900020798DF8810060798DF88200A0798DF806
:103DA0008300E0798DF88400207A8DF88500607AB0
:103DB0008DF886000820CDE90E05382214A9684642
:103DC000FCF724FA0DF1400C9CE80F00FFF720FFF0
:103DD0003D22194910A8FCF719FA20788DF87D00CA
:103DE00060788DF87E00A0788DF87F00E0788DF8FF
:103DF000800020798DF8810060798DF88200A079AB
:103E00008DF88300E0798DF88400207A8DF88500A4
:103E1000607A8DF886000C21CDE90E18382214A99D
:103E20006846FCF7F3F910AC94E80F00FFF7F0FEDA
:103E300022B0BDE8F0810000A00000202DE9FF5F66
:103E40008B460EA991E8E00700F0A9FA0A4CC4E9F4
:103E50000001584600F0A3FAC4E90201029800F0FC
:103E60009EFAC4E90401039800F099FA183484E832
:103E7000E307BDE8FF9F00002000002010B50A49BD
:103E80000A48FFF71BFC08490948091DFFF716FC03
:103E9000054908480831FFF711FC0349BDE8104007
:103EA0000C310548FFF70ABC10040020E800002090
:103EB00030010020780100200802002010B591EAAE
:103EC000030F48BF83F0004300F1EA84841A71EBCA
:103ED000030C05D2121943EB0C03001B61EB0C0120
:103EE000DFF824E14FEA1154A4EB135C1EEA430F00
:103EF00018BF9EEA445F73D023EA0E03DCF1200E64
:103F000021EA045143F4801332D322FA0CFE10EB61
:103F10000E0023FA0CFE41EB0E01CCF1200E03FA49
:103F20000EFE10EB0E0051F10001B1F5801FCCF137
:103F3000200E32D201EB045112FA0EF2BDE810400D
:103F400058BF7047401C38BF5FEA420218BF704735
:103F5000002814BF20F0010041F100014FEA4103A5
:103F600013F5001F38BF7047A1F1C04100F062BBDC
:103F7000012A43EB0302ACF1200CDCF11F0E32BF2F
:103F80004FF0000E23FA0CF310EB030041EB045149
:103F9000B4EB115FD0D0A1EB045101F580114908B9
:103FA0005FEA300001EB04510ED350F1000038BF3E
:103FB00012FA0EFE08D1BDE81040C9E7401C38BF18
:103FC0005FEA4202CAD1C3E7BDE810404FEA4103AD
:103FD00013F5001F38BF7047A1F1C04100F02ABBA4
:103FE0009EEA445F08D011EA5E0FBDE8104004BFAE
:103FF00001F0004100207047BDE8104070B500F0AE
:10400000CBFA00BF64FBBE3E0000E0FF02494FF068
:10401000000001F05EB800BF0000F87F491058BFF3
:10402000C1F140415B1058BFC3F140438B42EFF3F5
:10403000008070472DE9C04130B4DFF8A0C23CEAEF
:10404000111418BF3CEA131400F0EC8081EA030558
:104050001CEA111444EAD57418BF1CEA131500F0C9
:10406000C780A4EB05044FF0004545EAC12145EAAD
:10407000C32341EA505143EA525304F17F749942F9
:1040800004F500344FEAC0204FEAC22208BF904234
:1040900000F09C804FEA13650FF24016765D4FEA00
:1040A000134506FB05F7C7F1807706FB07F74FEAD4
:1040B000D737A7FB03687642C8F58038A7FB06CE42
:1040C00038BFA8F1010807FB08E64FF0000EA6FB79
:1040D000028CE6FB03CEDCF1000CCEF1004E38BFC3
:1040E000AEF1010EA6FB0C584FF000074FF0000593
:1040F000E6FB0E87A1FB08C6A0FB07CE16EB0E065B
:1041000045F10005E1FB076515F1E04E7EBFA4F522
:1041100080345FEA46066D4116F1800745F10005DF
:104120004FEA17274FEA066647EA0567A6F1DE461B
:10413000B6F1805F4FEA15251FD9384624F0010CEF
:1041400005EBC471BCF1FE6F01EB0C1102D8F0BCA1
:10415000BDE8008124425CBF01F5801E9EEAC47F59
:1041600002D4F0BCBDE80081244238D4F0BCA1F1F7
:10417000C041BDE8004100F05DBA4FEAD22242EAF8
:1041800043524FEAD323A7FB02864FEAD02040EAEE
:10419000415007FB03661EEA0E0F4FEAD12105FBD3
:1041A000026658BFA6EB0056B6EB00564FEA520E19
:1041B0004EEAC37E18EB0E0E56EB530EBDD518EB30
:1041C00002085E417F1C55F10005B6E74FF48015EB
:1041D0004FF000074FF000064FF00008ADE7F0BCCD
:1041E0004FF0000001F1C04101F00041BDE8008145
:1041F00011EA0C1F0CEA131500D00CE013EA0C1F97
:1042000000F025804FF00000F0BC81EA030101F0CE
:104210000041BDE80081F0BCBDE8004181EA030136
:1042200000F008BAF0BCBDE8004170B500F0B4F988
:10423000097EFC3E00F007B881EA03014FF0000060
:1042400001F00041704781EA030100F0F3B9F0BCCE
:10425000BDE800414FF0000021497047FFFDFBF928
:10426000F7F5F4F2F0EEEDEBE9E8E6E4E3E1E0DEA9
:10427000DDDBDAD8D7D5D4D3D1D0CFCDCCCBCAC81B
:10428000C7C6C5C4C2C1C0BFBEBDBCBBBAB9B8B742
:10429000B6B5B4B3B2B1B0AFAEADACABAAA9A8A835
:1042A000A7A6A5A4A3A3A2A1A09F9F9E9D9C9C9B03
:1042B0009A999998979796959594939392919190AE
:1042C0008F8F8E8E8D8C8C8B8B8A8989888887873F
:1042D0008685858484838382828181800000FF07B4
:1042E0000000F87F4FEA41034FEA5353A3F5806380
:1042F000D3F11E03C8BFD3F1210C0CDD4FF00042F7
:1043000042EAC12242EA505232FA03FC8CEAE17CD2
:10431000ACEBE1707047102BC4BF0020704703F571
:10432000787CBCF1FF3F04D06FF0004282EA2100AC
:10433000704770B500F030F9499224800020704732
:10434000F2E700004FEA1153A3F58063D3F11E0397
:10435000A8BFD3F1200C08DB4FF0004242EAC12293
:1043600052EA505232FA03F0704709420BD4102B34
:10437000C4BF0020704703F5787CBCF1FF3F05D037
:104380004FF0FF3070474FF00000704770B500F0FD
:1043900003F900BF4992248000207047F0E710F035
:1043A000004248BF4042B0FA80F310FA03F10AD04D
:1043B000C3F11D0303F580634FEA415002EB035242
:1043C00002EBD12170474FF00000704751EA030C17
:1043D00017D41CF5801F58BFBCF5801F00F1068064
:1043E000994218BF704708BF9042704707D711F530
:1043F000801F58BF13F5801F19D499427047894216
:1044000070471CF5801F08D5BCF5801FF7D58B427F
:1044100018BF704708BF824270474FF4001C1CEB66
:10442000410F38BF1CEB430F01D28B42704770B570
:1044300000F0B2F8922449004FF000514FF0805341
:10444000FFF7ECBDDFF848C170B51CEA111E1EBFB6
:104450001CEA13159EEA0C0F95EA0C0F00F06F8012
:1044600081EA030423EA4C134EEAD47E21EA4C117C
:1044700041F4801143F48013AE44A1FB024CA0FB35
:104480000365AEF17F7E361955EB0C05A1FB034C9D
:104490004CF10003A0FB021C16EB0C06654153F126
:1044A0000003094218BF46F0010613F4007F0BD148
:1044B0004FEA03314FEA0530340341EA155140EA2F
:1044C00016506FF003020AE04FEAC3214FEAC520FD
:1044D000F40241EA555140EA56506FF0020202EBF5
:1044E0002E4201EB025585EACE710AD05FEA440CF8
:1044F00018BF24F0004450F1000041F1000120EA0F
:10450000D47040F2FE7C624500D270BDA84214BF58
:104510004FF080444FF04044002E08BF0024BEF10D
:10452000806FA8BFA1F1C041BDE8704080F28280D9
:104530004FF0000001F1C04101F0004170479EEAD8
:104540000C0F0CEA131518BF95EA0C0F06D04FF0AC
:10455000000081EA030E0EF0004170BD00F01CF86F
:104560008900013E00F007B800F009B84FEA430C9B
:104570005FEA5C5C08D081EA030100F05BB84FEAB7
:10458000410C5FEA5C5CF6D14FF0000001497047D6
:104590000000FF070000F87F0EF1020E2EF0030E60
:1045A0005EF8046B364205D4012A43EB030515F58A
:1045B000001F12D8012841EB010C1CF5001F0CD87C
:1045C0000ED14FEAD17C15F5001F0CEB4C0C0CF111
:1045D000020C08BF4CEBD37C04E04FF0080C01E068
:1045E0004FEAD37C0CEB4C0526FA05F606F00706DD
:1045F000B6F1040C06D20EEB860CBDE870404CF010
:10460000010C6047DFE80CF0090B02024FF000419B
:104610004FF00000A1F5002170BD19461046012899
:1046200051EB010418BFD4F5001484BF002001F041
:10463000004170BD0808A0F500114FEA3101704734
:1046400053EA010C17D41CF5801F58BFBCF5801F1E
:1046500000F106808B4218BF704708BF8242704746
:1046600007D713F5801F58BF11F5801F19D48B424F
:1046700070479B4270471CF5801F08D5BCF5801F12
:10468000F7D5994218BF704708BF904270474FF462
:10469000001C1CEB430F38BF1CEB410F01D29942A9
:1046A00070470FB40CBC03BCFFF7C1BE91EA030F07
:1046B00010B581F000413FF509AC83F0004300F0F4
:1046C000EFB800002DE9F04101F5801CBCF5001F9A
:1046D000C0F2C3804FEA115C21EA0C510CF1FD0CD1
:1046E00041F480115FEA5C0C0CF5C07C01D3400002
:1046F00049413DA4890241EA905187028E0E0A0C7D
:10470000A45D04FB04F602FB06F6C6F14046A4FBDA
:104710000662F60D46EA422606FB06F4A4FB0123D8
:104720005242C3F1404338BF5B1EA6FB0242002445
:10473000E6FB0324D20B42EA4446A6FB0623A1FB78
:1047400002E2A3FB07E4A4184FF0000252F10002BA
:10475000E3FB01426442C2F1404E38BFAEF1010EAC
:10476000A6FB04234FF00002E6FB0E32A2FB034639
:104770004FF00004B61954F10004E2FB0264A1FBFF
:1047800006E6A4FB07E816EB08064FF0000858F110
:104790000008E4FB01687642C8F1405838BFA8F130
:1047A0000108A2FB06E4A3FB08E52D194FF0000465
:1047B00054F10004E2FB0854A1FB05E6A7FB04E862
:1047C00018EB06084FF0000656F10006E1FB0486E0
:1047D00018F1200556F10006A809A8F11B08B10937
:1047E00008F03F08B8F10A0F40EA86601CD901EBD7
:1047F0000C51BDE8F08100BFFCF5EEE8E2DDD8D356
:10480000CFCBC7C3C0BDB9B6B4B1AEACA9A7A5A341
:10481000A19F9D9B9A9896959392908F8D8C8B8952
:104820008887868584838281A0FB006800FB01F273
:1048300008EB4208B8EB872807D5341858EB010479
:10484000D5D5401C51F10001D1E7341A78EB0104B1
:10485000CDD4401E71F10001C9E75FEA4C0C5FEA5C
:104860009C5C0DD105D34FF0000001F00041BDE884
:10487000F081BDE8F04170B5FFF78EFE6DDBFFBE45
:10488000BDE8F0414FF00000004970470000F87F9C
:1048900010B591EA030F48BF83F000433FF516AB14
:1048A000841A71EB030C07D212198CF0004C43EB05
:1048B0000C03001B61EB0C01DFF8A4E14FEA11547B
:1048C000A4EB135C1EEA430F18BF9EEA445F00F09E
:1048D000B08023EA6E03524221EA0451C3EB6E0317
:1048E00038BF5B1EDCF1200E25D322FA0CFE10EB44
:1048F0000E0043FA0CFE41EB0E01CCF1200E03FA40
:104900000EFE10EB0E0051F10001CCF1200E29D467
:1049100012FA0EF201EB0451BDE8104058BF704787
:10492000401C1CBFB2F1004F704700280CBF491C4F
:1049300020F00100704712EB020E43EB030218BF98
:104940004FF0010E4EEA4202ACF1200CDCF11E0EDB
:1049500054D943FA0CFE10EB0E0051F1FF31CCF1AB
:104960001E0ED5D50EF1010E12FA0EFE404141EB9E
:10497000010101EB445C5FEA5C5C10D910EBDE7076
:1049800001EB045138BFBEF1004FBDE8104018BF25
:10499000704700280CBF491C20F00100704730D23E
:1049A0004FEAD42C11F5001124F400641BD0B1FAA5
:1049B00081F20B3AA41AA41ED2F12003914030FADE
:1049C00003F31943904001EBCC71002C01EB04512F
:1049D000BDE81040A8BF704701F1C0414FF0000092
:1049E00001F000417047B0FA80F310FA03F100D1F2
:1049F00010BDE41A173C4805C90AE4E701EB04516D
:104A000010BD491001EB0451BDE810404FEA3000E1
:104A100002E04FF0000170474A0008BF0042F8D0A2
:104A2000B2F5001F28BF704701F000414FF00000B1
:104A300070479EEA445F07D011EA5E0FBDE8104060
:104A400004BF002100207047BDE8104070B5FFF79B
:104A5000A3FD00BF40DFF63E83F0004110467047E3
:104A60000000E0FF43004FEAD30C4FEA3C0C434008
:104A70001FBF40070CF1605113F0FE4F70471CF050
:104A8000006F03D100200CF0004170470CF0004390
:104A900043EA507010B540EACC0000F028FA00BF9D
:104AA000000000924FEA0001FFF7C4BD4FF0004143
:104AB0004FF00000A1F500217047000090EA010FBF
:104AC00048BF81F0004100F19682421A3CBF801A33
:104AD00089184FEAD0524FF07F4C1CEA410FA2EBED
:104AE000D15318BF9CEA026F00F03B804FF0004C9E
:104AF0004CEA00204CEA012121FA03FC10EB0C0CDB
:104B00001ED202F1FF325FEA1C2040EBC25038BFD8
:104B100070471CF07F0F4FEA400C18BFBCF17F4F6D
:104B200038BF7047C3F12003994008BF20F001004F
:104B3000BCF17F4F38BF7047A0F1C04000F01DBAF4
:104B40004FEA3C00000A40EBC25028BF1CF0FF0FA8
:104B50004FEA400CE6D018BFBCF17F4F38BF70471A
:104B6000EAE79CEA026F05D010EA5C0F08BF00F08C
:104B70000040704710B500F0BAF900BF64FBBE3EBC
:104B8000401058BFC0F14040491058BFC1F14041EA
:104B90008142EFF3008070474FF47F0C1CEAD01283
:104BA0001EBF1CEAD11392EA0C0F93EA0C0F00F01F
:104BB000858090EA010F48BF42F4807240F4000CF7
:104BC00041F400002CF07F4120F07F4000B581428D
:104BD000A2EB03020FF2081CACEB504EC0F1000038
:104BE0009EF800E04FEA4E0E00FB0EFC38BF490075
:104BF0004FEA2C1C02F5FA020CFB0EF34FEACE1E14
:104C00004FEA112C4FEAC1210EEB635E42EB2242C8
:104C10000EFB0CFC4FEA1C5300FB03114FEA112C56
:104C20004FEA01310EFB0CFC4FEADC4C00FB0C118F
:104C3000C14228BF09184CEB03335DF804EB10EBBD
:104C4000410143EBC250B2F57C0F38BF704729D504
:104C500012F0F00F1CBF00F1C04000F000407047A0
:104C6000008182838485868788898B8C8D8E8F9145
:104C70009293959697999A9C9D9FA0A2A3A5A7A869
:104C8000AAACAEB0B2B3B5B7B9BCBEC0C2C5C7C995
:104C9000CCCED1D4D7D9DCDFE2E6E9ECF0F3F7FAF9
:104CA000FE0000004FEA400C0CF1807CBCF17E4F0E
:104CB00028BF7047B0F1C04000F05FB990EA010F23
:104CC0000CEAD11348BF42F48072624538BF634595
:104CD00007D213F47F0F16D080EA010000F00040E5
:104CE000704710B500F003F9097EFC3E00F005B8EE
:104CF00080EA010000F00040704780EA010000F007
:104D0000004000F03AB912F47F0F04BF0248704728
:104D100080EA010000F031B90000C07F41000B0EB5
:104D2000D3F19E0208D950F400034FEA032323FA7B
:104D300002F048BF4042704710B500F0D8F800BFFD
:104D400049922480002070476FF0004282EA2000E0
:104D50007047000010F0004148BF4042B0FA80F3B5
:104D600010FA03F2C3F19D030BD051EAC35101EBDA
:104D70001220530638BF704700F1010008BF20F031
:104D80000100704750EA010C00F113801CF5000F80
:104D900058BFBCF5000F01D48842704707D710F503
:104DA000000F58BF11F5000F15D488427047894293
:104DB00070471CF5000F04D5BCF5000FF7D58142F4
:104DC00070474FF0807C1CEB400F38BF1CEB410F4D
:104DD00001D28142704710B500F089F89224490051
:104DE0004FF000504FF08051FFF7CABE4FF47F0CD8
:104DF0001CEAD0121EBF1CEAD11392EA0C0F93EAF0
:104E00000C0F00F0478090EA010F48BF42F4807217
:104E10004FF0004C4CEA00204CEA012102EB030267
:104E2000A0FB0113A2F50002002918BF43F0010303
:104E30005B0028BF4FEA330342EB22425FEA132CA8
:104E40004CEBC2502EBFBCEB436FB2F57C0F7047EA
:104E50004FEA036CBCF1004F08BF20F00100B2F52F
:104E60007C0F38BF70470BD582F0FF0212F5803FF0
:104E7000C8BF704700F1C040D8BF00F00040704785
:104E800000F5000C5FEA4C0C48BF7047B0F1C04021
:104E900000F073B890EA010F0CEAD11348BF42F456
:104EA0008072624538BF634504D280EA010000F099
:104EB0000040704710B500F01AF800BF8900013EAD
:104EC00000F007B800F009B85FEA410C5FEA1C6C1B
:104ED00008D080EA010000F050B85FEA400C5FEAB9
:104EE0001C6CF6D14FF00040A0F5800070470EF129
:104EF000020E2EF0030E5EF8044B244204D44FEA57
:104F00004102B2F17F4F11D84FEA4003B3F17F4F16
:104F10000CD80ED14FEAD07CB2F17F4F0CEB4C0C89
:104F20000CF1020C08BF4CEBD17C04E04FF0080CF4
:104F300001E04FEAD17C0CEB4C0324FA03F404F0BB
:104F40000704B4F1040C06D20EEB840CBDE810404B
:104F50004CF0010C6047DFE80CF0070802024FF04C
:104F60000040A0F5800010BD0846420018BFD2F1F5
:104F7000807288BF00F0004010BDFF2141EAD05090
:104F8000C005704751EA000C00F113801CF5000FBA
:104F900058BFBCF5000F01D48142704707D711F507
:104FA000000F58BF10F5000F15D481427047894299
:104FB00070471CF5000F04D5BCF5000FF7D58842EB
:104FC00070474FF0807C1CEB410F38BF1CEB400F4B
:104FD00001D28842704780EA010081EA000180EA3C
:104FE0000100FFF7F8BE000090EA010F48BF81F012
:104FF00000413FF56AAD421A04D882F00042A0EBAE
:10500000020011444FEAD0524FF07F4C1CEA410F8E
:10501000A2EBD15318BF9CEA026F4AD04FF0004C6C
:105020004CEA00204CEA012121FA03FCB0EB0C0C05
:105030000FD412F0FE0F36D05FEA4C001DD50012DF
:1050400040EBC25038BF70471CF03F0F18BF70478D
:105050000BE0A2F101025FEA1C2040EBC25038BF16
:1050600070471CF07F0F18BF7047C3F120039940B1
:1050700014BF401E20F00100704780084FEA122341
:1050800008BF7047B0FA80FCA2EB0C02CCF1280CF0
:1050900060FA0CF093EA122F04BF00EBC250704785
:1050A0004FEAC3707047130A5FEADC1008BF70470D
:1050B000F6E79CEA026F04D010EA5C0F08BF0020FC
:1050C000704710B5FFF713FF40DFF63E81F0004058
:1050D00070470CF00F03092B08BF082000F059801F
:1050E0000A2B0BD0082B18BF704708BF1CF0400FCD
:1050F0000AD04FF000004FF0000170471CF0400F45
:1051000018BF4FF0004070471CF0100F08D020F07F
:10511000704300F07F4242EAD3014FEA4370704788
:1051200000F0604021F07F4242EA000201F07F403F
:1051300040EA727070474FF0FF0C4CF4E06C1CEAD0
:1051400011531CBF9CEA030C9445C2BFDA4201EB29
:1051500002517047002B0DD0BCF1000F0FD0002A78
:1051600001F00041A4BF41F0E04141F07F614FF008
:105170000000704701F000414FF00000704750EA16
:1051800001334FF09B0C18BF4CF0806C7EF43EAFA7
:1051900070471CF4801F11D01CF4E02F03D06FEA7D
:1051A000CC31490070474FF04050EFF3008222F0BD
:1051B000704242EA000282F3008870474FF000001C
:1051C0007047000000000000000001020304060711
:1051D00008090000000001020304000000000000B4
:1051E000555555555555C53F7D6FEB0312D6D4BF68
:1051F0005544880E55C1C93F3B8F68B52882A4BF6E
:1052000088B20175E0EF493F09F7FD0DE13D023F2E
:105210004B2D8A1C273A03C0C88A599CE52A0040B6
:1052200059018D1B6C06E6BF82922EB1C5B8B33F03
:105230004FBB610567ACDD3F182D4454FB21E93FAE
:105240009BF681D20B73EF3F182D4454FB21F93F9D
:10525000E2652F227F2B7A3C075C143326A6813C23
:10526000BDCBF07A8807703C075C143326A6913CCE
:10527000C4EB98999999C9BF711623FEC671BCBF3A
:105280006D9A74AFF2B0B3BF9AFDDE522DDEADBFA2
:105290002F6C6A2C44B4A2BF0D5555555555D53FBA
:1052A000FF8300922449C23F6E204CC5CD45B73FD5
:1052B000513DD0A0660DB13FEB0D76244B7BA93F4D
:1052C00011DA22E33AAD903FE852000800000020D6
:1052D000580000006C0100084053000858000020EE
:1052E000280A0000880100080100000010000000EA
:1052F000000000000024F400000000000000000096
:10530000000000000000000000000000000000009D
:10531000000000000000000000000000000000008D
:10532000000000000000000000000000000000007D
:10533000000000000000000000000000000000006D
:0400000508000131BD
:00000001FF
