:020000040800F2
:1000000058090020CD01000813210008871C0008B2
:1000100011210008D3020008192700080000000081
:100020000000000000000000000000001721000890
:10003000170300080000000015210008192100081E
:10004000E7010008E7010008E7010008E7010008F0
:10005000E7010008E7010008E7010008E7010008E0
:10006000E7010008E7010008E7010008E7010008D0
:10007000E7010008E7010008D5020008E1020008D6
:10008000E7010008E7010008E7010008E7010008B0
:10009000E7010008E7010008E7010008E7010008A0
:1000A000E7010008E7010008E7010008E701000890
:1000B000E7010008E7010008E7010008E701000880
:1000C000E7010008E7010008E7010008E701000870
:1000D000E70100080D270008E7010008E701000814
:1000E000E7010008E7010008E7010008E701000850
:1000F000E7010008E7010008E7010008E701000840
:10010000E7010008E7010008E7010008E70100082F
:10011000E7010008E70100087D210008E701000869
:10012000E7010008E7010008E7010008E70100080F
:1001300000F002F800F03AF80AA090E8000C8244BF
:100140008344AAF10107DA4501D100F02FF8AFF29C
:10015000090EBAE80F0013F0010F18BFFB1A43F0A5
:1001600001031847E426000004270000103A24BFCA
:1001700078C878C1FAD8520724BF30C830C144BF0C
:1001800004680C607047000000230024002500264E
:10019000103A28BF78C1FBD8520728BF30C148BFEA
:1001A0000B6070471FB51FBD10B510BD00F058F8AB
:1001B0001146FFF7F7FF02F0C9FA00F076F803B432
:1001C000FFF7F2FF03BC00F07DF80000094880470C
:1001D00009480047FEE7FEE7FEE7FEE7FEE7FEE729
:1001E000FEE7FEE7FEE7FEE704480549054A064B41
:1001F000704700007B2100083101000858030020EF
:100200005809002058050020580500204FF0000232
:1002100000B5134694469646203922BFA0E80C50FC
:10022000A0E80C50B1F12001BFF4F7AF090728BFD7
:10023000A0E80C5048BF0CC05DF804EB890028BF53
:1002400040F8042B08BF704748BF20F8022B11F07C
:10025000804F18BF00F8012B7047704770477047F8
:10026000754600F02BF8AE4605006946534620F06F
:100270000700854618B020B5FFF7B6FFBDE820405F
:100280004FF000064FF000074FF000084FF0000B52
:1002900021F00701AC46ACE8C009ACE8C009ACE805
:1002A000C009ACE8C0098D46704710B50446AFF3ED
:1002B00000802046BDE81040FFF781BF004870472E
:1002C000F402002001491820ABBEFEE72600020020
:1002D0007047FEE7014800F0DDB800009C020020F6
:1002E000014800F0D7B800005802002030B590F85F
:1002F00040500124AC40C56B6C6004686360436887
:10030000102B036803D099600068C26030BD9A600A
:100310000068C16030BD704772B6FEE710B590F856
:1003200021100022022905D00421816380F82020B9
:10033000012010BD01680B6823F00E030B600168FB
:100340000B6823F001030B6090F84030C46B01216F
:1003500001FA03F3636080F8211080F82020104632
:1003600010BD00002DE9F05F90F821100024022953
:1003700003D004218163012485E001680A6822F02A
:100380000E020A6001680A6822F001020A603F4E0C
:100390003E4FB215DFF8F4C0DFF8F090DFF8ECA0C4
:1003A000DFF8E8B0DFF8E4E00168783F13011502F8
:1003B000ACF1640CA9F15009AAF13C0AABF1280B8D
:1003C000AEF1140E4FF48018B14227D9B9420ED0C5
:1003D000614512D049451DD0514518D0594518D016
:1003E000714501D1424615E0294EB14201D10122A9
:1003F00010E0274E1436B14201D110220AE0244EFB
:100400002836B14206D0224A3C32914201D11A46E6
:1004100000E02A461E49091F0A602BE0B94213D0AA
:10042000614517D0494522D051451DD059451DD0B1
:10043000714501D142461AE0B14202D14FF08072BB
:1004400015E0134EB14201D1012210E0104E1436D6
:10045000B14201D110220AE00D4E2836B14206D039
:100460000B4A3C32914201D11A4600E02A46074924
:1004700080394A60012180F82110002180F8201085
:10048000416B01B188472046BDE8F09F80000240E3
:10049000080402402DE9F05FC16B0A6801680B682F
:1004A000046C4FF0040808FA04F8844D844E854F1C
:1004B000DFF814C2DFF81492DFF814A2DFF814B2E8
:1004C000DFF814E218EA020F65D05FEA437862D5DC
:1004D0000A68920603D40A6822F004020A60DFF870
:1004E000F0814FF48062016808F1140813011402CE
:1004F000414524D9A9420DD0B1420FD0B9421AD0FA
:10050000614515D0494515D0514501D1120312E07E
:10051000594501D104220EE0714501D140220AE083
:100520006D4D1435A94206D06B4A2832914201D153
:100530001A4600E022466749091F0A6029E0A942DD
:1005400013D0B14215D0B94220D061451BD04945E6
:100550001BD0514502D14FF4800217E0414502D132
:100560004FF0806212E0594501D104220EE071453E
:1005700001D140220AE0584D1435A94206D0564A0E
:100580002832914201D11A4600E022464B490839EF
:100590004A60C16A71E04FF0020808FA04F818EAEC
:1005A000020F70D05FEA83786DD50A68920606D490
:1005B0000A6822F00A020A60012180F82110DFF89F
:1005C00010814FF40072016808F11408130114023D
:1005D000414524D9A9420DD0B1420FD0B9421AD019
:1005E000614515D0494515D0514501D1120312E09E
:1005F000594501D102220EE0714501D120220AE0C5
:10060000354D1435A94206D0334A2832914201D1E2
:100610001A4600E022462F49091F0A6029E0A94234
:1006200013D0B14215D0B94220D061451BD0494505
:100630001BD0514502D14FF4001217E0414502D1C1
:100640004FF0007212E0594501D102220EE07145CF
:1006500001D120220AE0204D1435A94206D01E4ABD
:100660002832914201D11A4600E022461349083946
:100670004A60002180F82010816A00291CD0BDE862
:10068000F05F0847FFE70825A540154214D01A0778
:1006900012D50A6822F00E020A6090F84020C36B5F
:1006A000012101FA02F25A60816380F821100021D1
:1006B00080F82010016BE0E7BDE8F09F08000240E1
:1006C0001C0002403000024044000240580002403A
:1006D0006C000240080402401C04024030B560B1C6
:1006E0001A4B026814219A4209D2194B1344B3FBE6
:1006F000F1F18900016417490AE0012030BD134B74
:100700005B421344B3FBF1F1890001640F490839DE
:10071000C163022180F82110136843F6F0718B4306
:10072000F0E901142143D0E902452C432143046937
:100730002143446921438469214319431160002105
:100740004163012242770177084630BD0804024028
:10075000F8FFFDBF0000024070B5044690F820008D
:10076000002501280CD0012084F8200094F8216095
:100770000020012E06D084F820000225284670BDF6
:10078000022070BD022684F82160A06320680668FC
:1007900026F0010606602046FFF7A8FDE06A002863
:1007A0002068016802D041F00E0106E021F004014A
:1007B00001602068016841F00A0101602068016859
:1007C00041F001010160D9E72DE9F84FDFF8C89148
:1007D000002409F1040A0AF1040B23460F270BF148
:1007E000040ED1E00125A54006EA0502AA4276D111
:1007F000DFF8A8C14E68A6EB0C0866452BD00DDCCF
:10080000032E34D005DC36B3012E19D0022E2FD1A1
:100810001BE0112E16D0122E2AD119E0B8F5881F30
:1008200019D006DCB8F5803F15D0B8F5801F1FD170
:1008300011E0B8F5001F0ED0B8F5041F18D10AE07A
:10084000CB6815E0CB681B1D12E0CB6808330FE0C6
:10085000CB680C330CE08B682BB1012B4FF00803F5
:1008600003D0456104E0042302E0056100E00023B9
:10087000FF2A01D8064601E000F104064FEA84058C
:1008800001D9A5F12005D6F8008007FA05FC28EA71
:100890000C0803FA05F548EA0508C6F800804D681B
:1008A000ED0070D53E4DAE6946F00106AE61AD6912
:1008B00024F0030605F0010500953A4D06EB050C02
:1008C000DCF80850A607360F07FA06F825EA0805EF
:1008D000DFF8D480404503D14FF0000825E052E016
:1008E000DFF8C880404502D14FF001081DE0DFF875
:1008F000C080404502D14FF0020816E0DFF8B48016
:10090000404502D14FF003080FE0DFF8AC804045CE
:1009100002D14FF0040808E0DFF8A080404502D182
:100920004FF0050801E04FF0060808FA06F848EA1B
:100930000508CCF808804D68D9F80060ED034D46F5
:1009400001D5164300E096432E604D68DAF800604A
:10095000AD03554601D5164300E096432E604D6821
:10096000DBF80060ED025D4601D5164300E09643DA
:100970002E604D68DEF80060AD02754601D5164365
:1009800000E096432E60641C0A681646E2407FF43D
:1009900029AFBDE8F88F00000004014000001110ED
:1009A000001002400000014000080140000C01401E
:1009B000001001400014014000180140001C0140DB
:1009C00001488068704700000000002002488168EC
:1009D000027811448160704700000020074810B57C
:1009E000016841F010010160032000F075F80F204C
:1009F00000F006F800F024F8002010BD00200240AE
:100A000070B50D4D04464FF47A712878B1FBF0F0C3
:100A10000A490968B1FBF0F000F0ECFA48B9102C73
:100A200007D200222146501E00F036F800206C60EC
:100A300070BD012070BD0000000000200C000020EF
:100A40000C4808B5816941F001018161816901F0BB
:100A500001010091C16941F08051C161C06900F09C
:100A6000805000900448416821F0E06141F000713D
:100A7000416008BD0010024000000140002809DB71
:100A800000F01F02012191404009800000F1E020A8
:100A9000C0F8001170470000F0B40E4B1B680C4604
:100AA000C3F30223C3F10705042D00D90425191D42
:100AB000072901D2002300E0DB1E012606FA05F11A
:100AC000491E214099409E40761E16403143F0BC9D
:100AD00001F023BE0CED00E0064900F007020868B3
:100AE0004FF6FF03184040EA0220034A1043086013
:100AF000704700000CED00E00000FA052DE9F0471A
:100B00000F46050061D0434E306800F00700B84240
:100B100009D2306820F0070038433060306800F0B8
:100B20000700B84251D128683B4C810712D54007D5
:100B300003D5606840F4E06060602878000703D562
:100B4000606840F4605060606068A96820F0F00060
:100B5000084360602878C00728D06868012810D052
:100B60002168022810D0890700292EDA616821F057
:100B7000030101436160FFF723FF804641F288399A
:100B80000DE021688903EFE78901EDE7FFF718FF22
:100B9000A0EB0801494502D90320BDE8F087606851
:100BA000696800F00C00B0EB810FEFD1306800F005
:100BB0000700B8420BD9306820F007003843306096
:100BC000306800F00700B84201D00120E5E728783E
:100BD000400705D56068E96820F4E060084360607C
:100BE0002878000706D56068296920F4605040EA3B
:100BF000C100606000F038F86168084AC1F3031171
:100C0000515CC8400649086006480068FFF7F8FED6
:100C10000020C2E7002002400010024030280008F7
:100C20000C000020040000200448054900684968C1
:100C3000044AC1F30221515CC84070470C000020F7
:100C4000001002404028000804480549006849682F
:100C5000044AC1F3C221515CC84070470C00002017
:100C6000001002404028000812A185B00FC98DE88D
:100C70000F0014A0144A006804905168134801F052
:100C80000C03042B10D0082B0ED1C1F38343C903EE
:100C90001DF803000AD5516804AAC1F34041515C14
:100CA0000A4A5043B0FBF1F005B070470849484389
:100CB000FAE7000002030405060708090A0B0C0DF9
:100CC0000E0F1010010200000010024000127A0006
:100CD00000093D002DE9F84F040070D02078C04D88
:100CE000C00749D06868C0F38100012807D0686850
:100CF000C0F38100022809D16868C00306D52868BE
:100D0000800339D560680028E7D035E06068B0F529
:100D1000803F0BD010B1B0F5A02F11D0286820F47F
:100D200080302860286820F4802002E0286840F4A1
:100D300080302860606890B1FFF742FE06460AE006
:100D4000286840F480202860F0E700BFFFF738FEF5
:100D5000801B642873D828688003F7D50CE0FFF760
:100D60002FFE064605E000BFFFF72AFE801B642821
:100D7000F0D828688003F7D420789A4E80074FF087
:100D800001094FF0000839D5686810F00C0F07D042
:100D90006868C0F38100022809D16868C00306D4DE
:100DA0002868800714D52069012808D110E020693F
:100DB000B0B1C6F80090FFF703FE074605E00AE170
:100DC000FFF7FEFDC01B0228C4D828688007F7D5AE
:100DD0002868616920F0F80040EAC10028600DE051
:100DE000C6F80080FFF7ECFD074604E0FFF7E8FDDA
:100DF000C01B022823D828688007F7D42078000772
:100E00002CD57948A169D9B1C0F80090FFF7D8FD79
:100E1000074604E0FFF7D4FDC01B02280FD8686A1C
:100E20008007F7D571484FF4FA510068B0FBF1F034
:100E3000009000BF0098411E0091FAD20EE080E0C1
:100E4000C0F80080FFF7BCFD074604E0FFF7B8FDDF
:100E5000C01B022875D8686A8007F7D4207840073D
:100E600060D5E8690027C00008D4E86940F08050E8
:100E7000E861E869012700F0805000905C48016853
:100E8000C90513D40168834641F480710160FFF7FE
:100E900097FD824606E000BFFFF792FDA0EB0A0037
:100EA00064284ED8DBF80000C005F5D5E0680128BD
:100EB0000AD008B1052813D0286A20F00100286262
:100EC000286A20F0040002E0286A40F0010028624D
:100ED000E06841F2883B98B1FFF772FD82460BE073
:100EE000286A40F004002862EEE700BFFFF768FDC3
:100EF000A0EB0A0159455AD8286A8007F6D50CE0BC
:100F0000FFF75EFD824605E0FFF75AFDA0EB0A0100
:100F100059454CD8286A8007F6D41FB1E86920F0FB
:100F20008050E861E06988B36968C1F381010229F2
:100F300044D00228C6F8608004D0FFF741FD044683
:100F400038E034E0FFF73CFD074604E0FFF738FDEA
:100F5000C01B02282BD828688001F7D4206AB0F57E
:100F6000803F05D16868A16820F4003008436860BC
:100F7000D4E908010843696821F4741108436860E2
:100F8000C6F86090FFF71CFD044606E025E000BFB0
:100F9000FFF716FD001B022809D828688001F7D545
:100FA0001BE000BFFFF70CFD001B022802D9032045
:100FB000BDE8F88F28688001F4D40EE00128F7D04E
:100FC0006868226A00F48031914204D1616A00F4B9
:100FD0007010884201D00120EAE70020E8E7000015
:100FE0000010024000004242800442420C000020F7
:100FF0000070004010B5401EB0F1807F01D3012089
:1010000010BD4FF0E02460610F21601701F085FBF7
:101010000020A06107202061002010BD70477047AC
:1010200010B590F83C20012A22D0012280F83C2003
:10103000CA688C6822F4407222434C6822F48062B1
:1010400022430C6822F4006222430C6922F480528D
:1010500022434C6922F400522243C969002322F43E
:1010600080420A4301684A6480F83C30002010BD89
:10107000022010BD70B590F83C20012A2CD001242C
:1010800080F83C40022280F83D2003685A689D6841
:1010900022F070060A6832435A60104B02689A4286
:1010A0000ED00F4B9A420BD0B2F1804F08D00D4BAF
:1010B0009A4205D00C4B9A4202D00C4B9A4204D172
:1010C000496825F080031943916080F83D40002174
:1010D00080F83C10084670BD022070BD002C014015
:1010E000003401400004004000080040000C0040B3
:1010F00010B5040003D094F83D0010B107E00120C2
:1011000010BD002084F83C00204600F01FF80220AB
:1011100084F83D00211D206801F036F8012084F894
:10112000460084F83E0084F83F0084F8400084F8CC
:10113000410084F8420084F8430084F8440084F8B5
:10114000450084F83D00002010BD000008B5174A96
:1011500001681748914207D1816941F400618161BA
:10116000806900F400601EE0B1F1804F14D0114A94
:10117000914219D1C16941F01001C161C0690022D9
:1011800000F01000009011463620FFF785FCBDE806
:1011900008403620FFF772BCC16941F00101C1610E
:1011A000C06900F00100009008BD0000002C014063
:1011B000001002400010004090F83D10012901D0BD
:1011C00001207047022180F83D100168CA6842F092
:1011D0000102CA6000680E4988420ED00D4988425B
:1011E0000BD0B0F1804F08D00B49884205D00B4995
:1011F000884202D00A49884204D1816801F007017F
:10120000062903D0016841F0010101600020704708
:10121000002C014000340140000400400008004060
:10122000000C004070B5044690F83C00012817D02F
:10123000012584F83C50022084F83D002068826833
:1012400022F0770222F47F4282600868502830D072
:101250000DDC20284DD005DC98B310283BD148E0A8
:10126000022070BD302844D0402834D139E06028B5
:1012700028D0702806D0B0F5805F2CD0B0F5005F84
:1012800029D10AE0CB68D1E90121206800F0CFFF25
:101290002068816841F0770109E0CB68D1E901213C
:1012A000206800F0C4FF2068816841F480418160BB
:1012B00011E0CA684968206801F08EF85021206862
:1012C00007E016E0CA684968206801F096F86021D6
:1012D000206800F0B6FF84F83D50002084F83C0000
:1012E00070BDCA684968206801F076F8402120681E
:1012F000EFE7226801461046EBE72DE9F0410D4685
:10130000040003D094F83D0018B108E00120BDE8C6
:10131000F081002084F83C00204600F041F80220D3
:1013200084F83D002068816844F20702914381609F
:10133000211D206800F028FF226890689169166AD4
:101340002B68AF69034340F20330814341EA072130
:10135000A868EF6908434FF6FC418843E96840EA12
:101360000720014328692F6A000140EA073008433B
:1013700069686D6926F0220646EA051529439360DF
:101380002268906154F8460B0162012004F81F099D
:10139000E0752076E0762077A0750020B7E70000A2
:1013A00010B586B000210091019102910391364C55
:1013B00002683649C0233648A24211D1CA6942F0B8
:1013C0000202CA61CA6902F0020204928A6942F00A
:1013D00004028A618969009301F00401049137E0F5
:1013E0002C4CA2421FD1C86940F00400C861C869F2
:1013F00000F004000490886940F02000886188694A
:10140000694600F0200004904FF4405000902248BC
:10141000FFF7DAF92148416841F0E06141F4805179
:10142000416006B010BD1E4CA24216D1CA6942F0FE
:101430000802CA61CA6902F0080204928A6942F08D
:1014400004028A61896901F0040104910321009179
:101450004FEA0D01FFF7B8F9E3E712488242E0D105
:10146000886940F400508861886900F40050049055
:10147000886940F0100088618869694600F01000B2
:10148000049000930848E5E7000400400010024083
:101490000008014000080040001401400000014025
:1014A000000C00400034014000100140704770B54E
:1014B0000446006801694FF00005C943890715D447
:1014C000C168C943890711D4E91E01610120207751
:1014D000206880698007204602D0FFF7E7FF04E01C
:1014E00000F0FAF8204600F089F9257720680169B4
:1014F000C943490717D4C168C943490713D46FF0DA
:1015000004010161022020772068806910F4407F87
:10151000204602D0FFF7CAFF04E000F0DDF82046C5
:1015200000F06CF9257720680169C943090716D4D2
:10153000C168C943090712D46FF008010161042092
:1015400020772068C0698007204602D0FFF7AEFFF1
:1015500004E000F0C1F8204600F050F9257720683B
:101560000169C943C90617D4C168C943C90613D460
:101570006FF010010161082020772068C06910F425
:10158000407F204602D0FFF791FF04E000F0A4F86E
:10159000204600F033F9257720680169C943C9075F
:1015A00008D1C168C943C90704D1891E0161204619
:1015B00000F080F920680169C943090609D4C168AF
:1015C000C943090605D46FF0800101612046FFF789
:1015D00025FD20680169C943490609D4C168C9438A
:1015E000490605D46FF040010161204600F063F91F
:1015F00020680169C94389060BD4C168C9438906BB
:1016000007D46FF0200101612046BDE87040FFF76C
:1016100006BD70BD30B585B00021009101910291E9
:101620000391274A016827480224274D914218D187
:10163000816941F0400181618069694600F04000A4
:1016400004904FF4D440CDE9000420480394FFF700
:10165000BBF8686820F0C00040F0E06040F0C000D7
:101660002BE0B1F1804F29D1816941F008018161FE
:10167000816901F008010491816941F004018161EF
:101680008069694600F00400049040F60840CDE906
:1016900000040F480394FFF797F84FF40040CDE99A
:1016A000000469460B480394FFF78EF8686820F43D
:1016B000407040F0E06040F44070686005B030BDBC
:1016C000002C0140001002400000014000180140C1
:1016D000000C014000080140704770B5044690F8C6
:1016E0003C000D4601280AD0012084F83C0042B19C
:1016F000042A18D0082A2AD00C2A4DD139E0022019
:1017000070BD206800F0A6FD2068816941F00801E5
:1017100081612068816921F004018161206881690B
:101720002A69114311E0206800F0C4FD2068816936
:1017300041F4006181612068816921F480618161E7
:10174000206881692A6941EA0221816124E02068D8
:1017500000F0E6FD2068C16941F00801C161206820
:10176000C16921F00401C1612068C1692A6911437E
:1017700011E0206800F008FE2068C16941F40061B2
:10178000C1612068C16921F48061C1612068C169BB
:101790002A6941EA0221C161002084F83C0070BD41
:1017A00010B5040003D094F83D0010B107E001200B
:1017B00010BD002084F83C00204600F01EF80220F6
:1017C00084F83D00211D206800F0DEFC012084F833
:1017D000460084F83E0084F83F0084F8400084F816
:1017E000410084F8420084F8430084F8440084F8FF
:1017F000450084F83D00002010BD70477047000090
:1018000010B50446022249B104290ED0082913D08C
:1018100094F84100012816D0012010BD94F83E0034
:101820000128F9D184F83E200FE094F83F00012808
:10183000F2D184F83F2008E094F840000128EBD171
:1018400084F8402001E084F841200122206800F063
:10185000E1FC13492068134A884201D0904203D129
:10186000436C43F400434364206888420DD09042A7
:101870000BD0B0F1804F08D00B49884205D00B49FE
:10188000884202D00A49884204D1816801F00701E8
:10189000062903D0016841F001010160002010BD5C
:1018A000002C0140003401400004004000080040CA
:1018B000000C00407047704738B5044690F83E0071
:1018C00020281CD181B17AB194F83C00012816D0AF
:1018D000012084F83C002063204600F0DFFE002851
:1018E00003D1216B012901D0012038BD21680A688C
:1018F0004A680092CA6842F01002CA6038BD0220ED
:1019000038BD0000084810B50178A52905D1C07977
:101910005A2802D1044800F04FFFBDE810401422BD
:1019200001490248FFF7C8BFE0020020140200206E
:1019300070470000F8B5026804461068D168536922
:1019400010F00F0F4FF0000553D003F0010601F423
:10195000907737435FD0C20705D0CA0503D5226C04
:1019600042F001022264420705D5DA0703D0226C57
:1019700042F002022264820705D5DA0703D0226C06
:1019800042F004022264020707D501F0200232432C
:1019900003D0226C42F008022264226C002A34D068
:1019A000800604D5880602D5204600F0C0FD2068D8
:1019B0004069216CC0F38010090700D430B3204681
:1019C00000F094FD2068416949061BD5416921F06A
:1019D00040014161A06BA8B158494163A06BFEF77B
:1019E000C1FC002811D0A06B416B01B0BDE8F040F4
:1019F000084783060FD58B060DD52046BDE8F84075
:101A000000F095BD2046FFF793FFF8BD2046FFF795
:101A10008FFF2564F8BD266B2023012E52D1C60608
:101A200050D5CE064ED510685068009050694006DB
:101A30002AD5A16B086840680004000CEAD0A68D86
:101A40008642E7D9E0858869202818D0D06820F43C
:101A50008070D0602068416921F0010141612068F7
:101A6000416921F04001416184F83E3025632068DE
:101A7000C16821F01001C160A06BFEF74FFCA08D82
:101A8000E18D401A81B219E0A08DE18D401A81B23A
:101A9000E08D0028BED00029BCD0D06820F4907022
:101AA000D0602068426922F00102426184F83E3031
:101AB00025632068C26822F01002C2602046FFF74A
:101AC00021FFF8BD05062BD50D0629D594F83D005C
:101AD0002128F6D1A068B0F5805F01D12069B0B1AE
:101AE000206A411C2162216800784860E08C401E19
:101AF0000004000CE084E4D12068C16821F080017A
:101B0000C1602068C16841F04001C160F8BD206A31
:101B10000088C0F308005060206A801C2062E5E75E
:101B20004006F3D54806F1D5D168204621F04001A2
:101B3000D16084F83D3000F0A5F8F8BD1F240008FE
:101B400070B5040004D094F83D00002510B106E003
:101B5000012070BD84F83C50204600F023F824207A
:101B600084F83D002068C16821F40051C16020461E
:101B700000F038FD2068016921F49041016120687E
:101B8000416921F02A0141612068C16841F4005196
:101B9000C1602564202084F83D0084F83E000020C8
:101BA00070BD0000F0B585B0002406460094019495
:101BB0000294039400682D49884255D12C488169CC
:101BC00041F480418161816901F48041049181691E
:101BD00041F0040181618069264D00F00400049009
:101BE0004FF400700090022001900320039069469A
:101BF0002846FEF7E9FD2815CDE900046946284688
:101C00000294FEF7E1FD1D4D1B488027C5E9000445
:101C1000C5E9024720202C61C5E905402846EC6152
:101C2000FEF75CFD08B1FEF777FBB5636E62134DFE
:101C300011484435143801C5102091C50F4845F8A6
:101C4000104944306C61AC61EC61FEF747FD08B1AE
:101C5000FEF762FB75630022114625206E62FEF7D7
:101C60001BFF2520FEF70AFF05B0F0BD003801403C
:101C700000100240000801405800024058020020B5
:101C8000704770477047FEE70D4808B5416941F05D
:101C9000010141614069002200F0010000901146FD
:101CA0000E20FEF7F9FE0E20FEF7E8FE0022114698
:101CB0000F20FEF7F1FEBDE808400F20FEF7DEBE64
:101CC00000100240154808B5816941F004018161A6
:101CD000816901F004010091816941F04001816155
:101CE000816901F040010091816941F00801816141
:101CF000816901F008010091816941F02001816151
:101D0000816901F020010091816941F01001816138
:101D1000806900F01000009008BD00000010024033
:101D200010B596B000240F9410941194129413944B
:101D30001C2168461494FEF769FA202107A8FEF7D3
:101D400065FA3448324901604721C0E9011444F67C
:101D50001F61C0E9031444618461FFF7C9F908B148
:101D6000FEF7DAFA4FF480500F900FA92948FFF7D9
:101D700059FA08B1FEF7D0FA2648FFF711FD08B16D
:101D8000FEF7CAFA139413A922481494FFF772F9C4
:101D900008B1FEF7C1FA6020CDE900040294039473
:101DA00004940594002269461A480694FFF795FCAE
:101DB00008B1FEF7B1FA042269461648FFF78DFC18
:101DC00008B1FEF7A9FA082269461248FFF785FC18
:101DD00008B1FEF7A1FA0C2269460E48FFF77DFC18
:101DE00008B1FEF799FA0794089409944FF400504B
:101DF0000A94CDE90B4007A906480E94FFF710F9A5
:101E000008B1FEF789FA0348FFF704FC16B010BDCD
:101E1000002C01401C00002010B58EB00024079457
:101E2000089409940A940B941C2168460C94FEF7BC
:101E3000EDF92A484FF0804101604721C0E90114C3
:101E400044F61F61C0E903148461FFF751F908B13A
:101E5000FEF762FA4FF48050079007A91F48FFF77A
:101E6000E1F908B1FEF758FA1C48FFF799FC08B1F0
:101E7000FEF752FA0B940BA918480C94FFF7FAF8E6
:101E800008B1FEF749FA6020CDE90004029400226F
:101E9000694612480494FFF720FC08B1FEF73CFAAB
:101EA000042269460D48FFF718FC08B1FEF734FA22
:101EB000082269460948FFF710FC08B1FEF72CFA22
:101EC0000C2269460548FFF708FC08B1FEF724FA22
:101ED0000248FFF79FFB0EB010BD00006400002019
:101EE00010B58CB024216846FEF790F900241648FE
:101EF000099414490A94C0E9001444F61F61C0E92A
:101F00000241046184610320CDE900040120CDE990
:101F100002040494CDE90540079469460A480894F0
:101F2000FFF7EBF908B1FEF7F7F9099409A906489C
:101F30000A94FFF79FF8002801D0FEF7EDF90CB0E6
:101F400010BD000000040040AC00002010B58CB0B3
:101F500024216846FEF75AF90024164809941449CA
:101F60000A94C0E9001444F61F61C0E9024104610B
:101F700084610320CDE900040120CDE9020404942A
:101F8000CDE90540079469460A480894FFF7B5F97A
:101F900008B1FEF7C1F9099409A906480A94FFF7A8
:101FA00069F8002801D0FEF7B7F90CB010BD0000A9
:101FB00000080040F400002010B58CB024216846D1
:101FC000FEF724F900241648099414490A94C0E93C
:101FD000001444F61F61C0E90241046184610320DA
:101FE000CDE900040120CDE902040494CDE90540C7
:101FF000079469460A480894FFF77FF908B1FEF78D
:102000008BF9099409A906480A94FFF733F80028C8
:1020100001D0FEF781F90CB010BD0000000C0040AB
:102020003C0100201CB500240F4800940D49019488
:10203000016040F2CF21C0E9011442F20F718461C6
:10204000C160FFF755F808B1FEF766F900946946DC
:1020500005480194FFF70EF8002801D0FEF75CF95F
:102060001CBD0000001000408401002010B58CB0A1
:1020700024216846FEF7CAF800241648099414493A
:102080000A94C0E9001444F61F61C0E902410461EA
:10209000446184610320CDE900040120CDE90204FC
:1020A0000494CDE90540079469460A480894FFF76F
:1020B00024F908B1FEF730F9099409A905480A94F2
:1020C000FEF7D8FF002801D0FEF726F90CB010BDAE
:1020D00000340140CC0100200C4810B50A490160D1
:1020E0004FF416514160002181600C22C160C0E9AB
:1020F00004128161C161FFF723FD002803D0BDE810
:102100001040FEF709B910BD00380140140200204C
:10211000FEE7FEE770477047FEF758BC30B58FB05A
:1021200028216846FEF772F814210AA8FEF76EF817
:1021300001210804CDE90010002402940225049135
:10214000CDE907504FF4E01009906846FEF7C2FD54
:1021500008B172B6FEE70F20CDE90A054FF48060A2
:10216000CDE90C4002210AA80E94FEF7C7FC002816
:1021700001D072B6FEE70FB030BD70470148FFF7DF
:1021800096B9000084010020F0B502681C4B1D4D7B
:102190001D4E1E4F1E4C4FF0804C984209D0A0425D
:1021A00007D0604505D0A84203D0B04201D0B84264
:1021B00004D122F0700E4A6842EA0E02984209D019
:1021C000A04207D0604505D0A84203D0B04201D05C
:1021D000B84203D122F44075CA682A434D6922F0FF
:1021E00080022A4302608A68C2620A688262984258
:1021F00001D0A04201D10969016301214161F0BD13
:10220000002C01400004004000080040000C004089
:102210000034014010B501F01F030121046A994008
:102220008C430462016A9A401143016210BD10B5EB
:10223000846842EA032224F47F440A4322438260F2
:1022400010BD826822F070020A4342F007018160EB
:1022500070470000F0B5026A22F001020262036AD0
:1022600042688469124E24F073050C682C4323F0F5
:1022700002058B682B430D4DA84201D0B04205D119
:1022800023F00807CB683B4323F00403A84201D0A6
:10229000B04205D14D6922F4407215438A692A4340
:1022A00042608461496841630362F0BD002C0140D3
:1022B00000340140F0B5026A22F010020262026AA4
:1022C000436884690D6824F4E64444EA05248D6873
:1022D00022F0200242EA05120F4D104EA84201D012
:1022E000B04206D1CF6822F0800242EA071222F003
:1022F0004002A84201D0B04207D14D6923F44063A7
:1023000043EA85038D6943EA850343608461496834
:1023100081630262F0BD0000002C014000340140E6
:10232000F0B5026A22F480720262026A4368C469EC
:1023300022F4007224F073050C68124E2C438D6851
:1023400042EA05220E4DA84201D0B04206D1CF6824
:1023500022F4006242EA072222F48062A84201D0FD
:10236000B04207D14D6923F4405343EA05138D6908
:1023700043EA05134360C4614968C1630262F0BD6A
:10238000002C01400034014030B5026A22F4805232
:102390000262046A4268C3690D6823F4E64343EAB3
:1023A00005238D6824F4005444EA0534084DA842FE
:1023B00002D0084DA84204D14D6922F4804242EA7D
:1023C00085124260C36149680164046230BD000047
:1023D000002C01400034014010B5036A046A24F067
:1023E00001040462846924F0F00444EA021423F036
:1023F0000A020A438461026210BD10B5036A23F029
:10240000100303628369046A23F4704343EA0232CF
:1024100024F0A00343EA01118261016210BD10B5EE
:10242000406A0021C185C184FFF782FA10BD70B5F2
:10243000446A2068406994F83D10C0F3C01000253C
:10244000212904D118B1E584204600F067F82068FE
:10245000406994F83E10C0F38010222904D118B1CD
:10246000E585204600F042F8206C40F01000206422
:102470002046FFF75DFA70BD10B50146406A096855
:10248000096889061BD40021C1850168CA6822F445
:102490008072CA6001684A6922F001024A610168DB
:1024A0004A6922F040024A61202180F83E10016B07
:1024B000012904D10168CA6822F01002CA60016BC8
:1024C000012902D0FFF7DCFB10BD818DFFF71AFA5E
:1024D00010BD10B5406A016B012902D0FFF7D1FB96
:1024E00010BD818D4908FFF70DFA10BD0168CA685B
:1024F00022F49072CA6001684A6922F001024A61BE
:10250000016B012904D10168CA6822F01002CA6077
:10251000202180F83E100021016370470168CA68DD
:1025200022F0C002CA60202180F83D10704708B533
:1025300090F83E10222901D0022008BD82684FF495
:1025400080539A4201D1016921B1816A9A421BD01C
:102550004AB10AE00268816A5268C2F308020A803E
:10256000816A891C08E0026972B10268526802F04F
:102570007F020A70816A491C8162C18D491E09046B
:10258000090CC18503D019E002685268F1E70168BF
:10259000CA6822F02002CA600168CA6822F4807208
:1025A000CA6001684A6922F001024A61202180F86C
:1025B0003E10016B012903D0FFF762FB002008BD2C
:1025C000002101630168CA6822F01002CA60016834
:1025D0000A68D20602D50A6849680091818DFFF722
:1025E00091F9EBE770B5044600680169E26821F4EF
:1025F0004051114301612169A068084361690843A2
:102600002168CA6841F20C639A430243CA60206899
:102610004169A26921F44071114341611E4920685A
:10262000884202D1FEF710FB01E0FEF7FDFA00EB55
:10263000C00101EB0012606864218000B2FBF0F37E
:10264000B3FBF1F36FF018067343B2FBF0F5B2FB86
:10265000F0F605EB8305322303EB0515B5FBF1F529
:10266000B6FBF1F605F0F00505EB0615B2FBF0F64A
:10267000B2FBF0F0B0FBF1F06FF01802504306EB44
:10268000800003EB0010B0FBF1F0216800F00F00B8
:102690002844886070BD00000038014038B5816270
:1026A00082850025134604460564222084F83E00F6
:1026B000A26B13489062A26B1248D062A26B1248C0
:1026C0001063A06B0A4645632168A06B091DFEF7E5
:1026D00043F8206801684168009184F83C50C16863
:1026E00041F48071C1602068416941F0010141619C
:1026F0002068416941F040014161002038BD00007F
:1027000079240008D32400082F2400080148FFF78B
:1027100011B9000014020020FEE70907090E002885
:1027200004DB00F1E02080F80014704700F00F0097
:1027300000F1E02080F8141D704710B500F058F843
:1027400000F060F8BDE8104000F01CB8FEF746F954
:10275000FFF7E4FCFFF7B6FAFFF796FAFFF75CFB2A
:10276000FFF7BEFBFFF7F2FBFFF726FCFFF77EFC4F
:10277000FFF7B2FCFFF7D4FAFFF754FCFFF7DDFFD9
:10278000FEE7000010B500210948FFF739F80421E1
:102790000748FFF735F808210548FFF731F80C2105
:1027A0000348FFF72DF8BDE810400248FEF704BDCE
:1027B0001C000020840100200C4942784A60837884
:1027C0008B607F2A02DDA2F580724A607F2B02DDDA
:1027D000A3F580738B60C2788A70027902B10122FE
:1027E0000A70407900B10120487070471000002045
:1027F000142202490248FFF75FB80000E0020020FF
:102800001402002010B500210848FEF7F9FF04214A
:102810000648FEF7F5FF08210448FEF7F1FFBDE882
:1028200010400C210148FEF7EBBF000064000020BF
:102830000000000000000000010203040607080970
:1028400000000000010203046828000800000020C6
:102850001C0000006C010008842800081C000020F7
:102860003C09000088010008010000001000000081
:10287000000000000024F400000000000000000040
:042880000000000054
:0400000508000131BD
:00000001FF
